{
  "_format": "hh-sol-artifact-1",
  "contractName": "Domains",
  "sourceName": "contracts/Domain.sol",
  "abi": [
    {
      "inputs": [
        {
          "internalType": "string",
          "name": "_tld",
          "type": "string"
        }
      ],
      "stateMutability": "payable",
      "type": "constructor"
    },
    {
      "inputs": [],
      "name": "AlreadyRegistered",
      "type": "error"
    },
    {
      "inputs": [
        {
          "internalType": "string",
          "name": "name",
          "type": "string"
        }
      ],
      "name": "InvalidName",
      "type": "error"
    },
    {
      "inputs": [],
      "name": "NotEnoughFunds",
      "type": "error"
    },
    {
      "inputs": [],
      "name": "Unauthorized",
      "type": "error"
    },
    {
      "anonymous": false,
      "inputs": [
        {
          "indexed": true,
          "internalType": "address",
          "name": "owner",
          "type": "address"
        },
        {
          "indexed": true,
          "internalType": "address",
          "name": "approved",
          "type": "address"
        },
        {
          "indexed": true,
          "internalType": "uint256",
          "name": "tokenId",
          "type": "uint256"
        }
      ],
      "name": "Approval",
      "type": "event"
    },
    {
      "anonymous": false,
      "inputs": [
        {
          "indexed": true,
          "internalType": "address",
          "name": "owner",
          "type": "address"
        },
        {
          "indexed": true,
          "internalType": "address",
          "name": "operator",
          "type": "address"
        },
        {
          "indexed": false,
          "internalType": "bool",
          "name": "approved",
          "type": "bool"
        }
      ],
      "name": "ApprovalForAll",
      "type": "event"
    },
    {
      "anonymous": false,
      "inputs": [
        {
          "indexed": true,
          "internalType": "address",
          "name": "from",
          "type": "address"
        },
        {
          "indexed": true,
          "internalType": "address",
          "name": "to",
          "type": "address"
        },
        {
          "indexed": true,
          "internalType": "uint256",
          "name": "tokenId",
          "type": "uint256"
        }
      ],
      "name": "Transfer",
      "type": "event"
    },
    {
      "inputs": [
        {
          "internalType": "address",
          "name": "to",
          "type": "address"
        },
        {
          "internalType": "uint256",
          "name": "tokenId",
          "type": "uint256"
        }
      ],
      "name": "approve",
      "outputs": [],
      "stateMutability": "nonpayable",
      "type": "function"
    },
    {
      "inputs": [
        {
          "internalType": "address",
          "name": "owner",
          "type": "address"
        }
      ],
      "name": "balanceOf",
      "outputs": [
        {
          "internalType": "uint256",
          "name": "",
          "type": "uint256"
        }
      ],
      "stateMutability": "view",
      "type": "function"
    },
    {
      "inputs": [
        {
          "internalType": "string",
          "name": "",
          "type": "string"
        }
      ],
      "name": "domains",
      "outputs": [
        {
          "internalType": "address",
          "name": "",
          "type": "address"
        }
      ],
      "stateMutability": "view",
      "type": "function"
    },
    {
      "inputs": [
        {
          "internalType": "string",
          "name": "name",
          "type": "string"
        }
      ],
      "name": "getAddress",
      "outputs": [
        {
          "internalType": "address",
          "name": "",
          "type": "address"
        }
      ],
      "stateMutability": "view",
      "type": "function"
    },
    {
      "inputs": [],
      "name": "getAllNames",
      "outputs": [
        {
          "internalType": "string[]",
          "name": "",
          "type": "string[]"
        }
      ],
      "stateMutability": "view",
      "type": "function"
    },
    {
      "inputs": [
        {
          "internalType": "uint256",
          "name": "tokenId",
          "type": "uint256"
        }
      ],
      "name": "getApproved",
      "outputs": [
        {
          "internalType": "address",
          "name": "",
          "type": "address"
        }
      ],
      "stateMutability": "view",
      "type": "function"
    },
    {
      "inputs": [
        {
          "internalType": "string",
          "name": "name",
          "type": "string"
        },
        {
          "internalType": "string",
          "name": "recordName",
          "type": "string"
        }
      ],
      "name": "getRecord",
      "outputs": [
        {
          "internalType": "string",
          "name": "",
          "type": "string"
        }
      ],
      "stateMutability": "view",
      "type": "function"
    },
    {
      "inputs": [
        {
          "internalType": "address",
          "name": "owner",
          "type": "address"
        },
        {
          "internalType": "address",
          "name": "operator",
          "type": "address"
        }
      ],
      "name": "isApprovedForAll",
      "outputs": [
        {
          "internalType": "bool",
          "name": "",
          "type": "bool"
        }
      ],
      "stateMutability": "view",
      "type": "function"
    },
    {
      "inputs": [],
      "name": "isOwner",
      "outputs": [
        {
          "internalType": "bool",
          "name": "",
          "type": "bool"
        }
      ],
      "stateMutability": "view",
      "type": "function"
    },
    {
      "inputs": [],
      "name": "name",
      "outputs": [
        {
          "internalType": "string",
          "name": "",
          "type": "string"
        }
      ],
      "stateMutability": "view",
      "type": "function"
    },
    {
      "inputs": [
        {
          "internalType": "uint256",
          "name": "",
          "type": "uint256"
        }
      ],
      "name": "names",
      "outputs": [
        {
          "internalType": "string",
          "name": "",
          "type": "string"
        }
      ],
      "stateMutability": "view",
      "type": "function"
    },
    {
      "inputs": [],
      "name": "owner",
      "outputs": [
        {
          "internalType": "address payable",
          "name": "",
          "type": "address"
        }
      ],
      "stateMutability": "view",
      "type": "function"
    },
    {
      "inputs": [
        {
          "internalType": "uint256",
          "name": "tokenId",
          "type": "uint256"
        }
      ],
      "name": "ownerOf",
      "outputs": [
        {
          "internalType": "address",
          "name": "",
          "type": "address"
        }
      ],
      "stateMutability": "view",
      "type": "function"
    },
    {
      "inputs": [
        {
          "internalType": "string",
          "name": "name",
          "type": "string"
        }
      ],
      "name": "price",
      "outputs": [
        {
          "internalType": "uint256",
          "name": "",
          "type": "uint256"
        }
      ],
      "stateMutability": "pure",
      "type": "function"
    },
    {
      "inputs": [
        {
          "internalType": "string",
          "name": "",
          "type": "string"
        },
        {
          "internalType": "string",
          "name": "",
          "type": "string"
        }
      ],
      "name": "records",
      "outputs": [
        {
          "internalType": "string",
          "name": "",
          "type": "string"
        }
      ],
      "stateMutability": "view",
      "type": "function"
    },
    {
      "inputs": [
        {
          "internalType": "string",
          "name": "name",
          "type": "string"
        }
      ],
      "name": "register",
      "outputs": [],
      "stateMutability": "payable",
      "type": "function"
    },
    {
      "inputs": [
        {
          "internalType": "address",
          "name": "from",
          "type": "address"
        },
        {
          "internalType": "address",
          "name": "to",
          "type": "address"
        },
        {
          "internalType": "uint256",
          "name": "tokenId",
          "type": "uint256"
        }
      ],
      "name": "safeTransferFrom",
      "outputs": [],
      "stateMutability": "nonpayable",
      "type": "function"
    },
    {
      "inputs": [
        {
          "internalType": "address",
          "name": "from",
          "type": "address"
        },
        {
          "internalType": "address",
          "name": "to",
          "type": "address"
        },
        {
          "internalType": "uint256",
          "name": "tokenId",
          "type": "uint256"
        },
        {
          "internalType": "bytes",
          "name": "_data",
          "type": "bytes"
        }
      ],
      "name": "safeTransferFrom",
      "outputs": [],
      "stateMutability": "nonpayable",
      "type": "function"
    },
    {
      "inputs": [
        {
          "internalType": "address",
          "name": "operator",
          "type": "address"
        },
        {
          "internalType": "bool",
          "name": "approved",
          "type": "bool"
        }
      ],
      "name": "setApprovalForAll",
      "outputs": [],
      "stateMutability": "nonpayable",
      "type": "function"
    },
    {
      "inputs": [
        {
          "internalType": "string",
          "name": "name",
          "type": "string"
        },
        {
          "internalType": "string",
          "name": "recordName",
          "type": "string"
        },
        {
          "internalType": "string",
          "name": "record",
          "type": "string"
        }
      ],
      "name": "setRecord",
      "outputs": [],
      "stateMutability": "nonpayable",
      "type": "function"
    },
    {
      "inputs": [
        {
          "internalType": "bytes4",
          "name": "interfaceId",
          "type": "bytes4"
        }
      ],
      "name": "supportsInterface",
      "outputs": [
        {
          "internalType": "bool",
          "name": "",
          "type": "bool"
        }
      ],
      "stateMutability": "view",
      "type": "function"
    },
    {
      "inputs": [],
      "name": "symbol",
      "outputs": [
        {
          "internalType": "string",
          "name": "",
          "type": "string"
        }
      ],
      "stateMutability": "view",
      "type": "function"
    },
    {
      "inputs": [],
      "name": "tld",
      "outputs": [
        {
          "internalType": "string",
          "name": "",
          "type": "string"
        }
      ],
      "stateMutability": "view",
      "type": "function"
    },
    {
      "inputs": [
        {
          "internalType": "uint256",
          "name": "tokenId",
          "type": "uint256"
        }
      ],
      "name": "tokenURI",
      "outputs": [
        {
          "internalType": "string",
          "name": "",
          "type": "string"
        }
      ],
      "stateMutability": "view",
      "type": "function"
    },
    {
      "inputs": [
        {
          "internalType": "address",
          "name": "from",
          "type": "address"
        },
        {
          "internalType": "address",
          "name": "to",
          "type": "address"
        },
        {
          "internalType": "uint256",
          "name": "tokenId",
          "type": "uint256"
        }
      ],
      "name": "transferFrom",
      "outputs": [],
      "stateMutability": "nonpayable",
      "type": "function"
    },
    {
      "inputs": [
        {
          "internalType": "string",
          "name": "name",
          "type": "string"
        }
      ],
      "name": "valid",
      "outputs": [
        {
          "internalType": "bool",
          "name": "",
          "type": "bool"
        }
      ],
      "stateMutability": "pure",
      "type": "function"
    },
    {
      "inputs": [],
      "name": "withdraw",
      "outputs": [],
      "stateMutability": "nonpayable",
      "type": "function"
    }
  ],
  "bytecode": "0x6080604052604051806108a0016040528061086b81526020016200561561086b9139600a908051906020019062000038929190620002c8565b506040518060400160405280600d81526020017f3c2f746578743e3c2f7376673e00000000000000000000000000000000000000815250600b908051906020019062000086929190620002c8565b5060405162005e8038038062005e808339818101604052810190620000ac919062000515565b6040518060400160405280601681526020017f446f706520476f6174204e616d652053657276696365000000000000000000008152506040518060400160405280600481526020017f44474e5300000000000000000000000000000000000000000000000000000000815250816000908051906020019062000130929190620002c8565b50806001908051906020019062000149929190620002c8565b50505033600960006101000a81548173ffffffffffffffffffffffffffffffffffffffff021916908373ffffffffffffffffffffffffffffffffffffffff1602179055508060089080519060200190620001a5929190620002c8565b50620001f26040518060400160405280601881526020017f2573206e616d652073657276696365206465706c6f796564000000000000000081525082620001f960201b62001cc51760201c565b5062000663565b6200029b828260405160240162000212929190620005c3565b6040516020818303038152906040527f4b5c4277000000000000000000000000000000000000000000000000000000007bffffffffffffffffffffffffffffffffffffffffffffffffffffffff19166020820180517bffffffffffffffffffffffffffffffffffffffffffffffffffffffff83818316178352505050506200029f60201b60201c565b5050565b60008151905060006a636f6e736f6c652e6c6f679050602083016000808483855afa5050505050565b828054620002d6906200062d565b90600052602060002090601f016020900481019282620002fa576000855562000346565b82601f106200031557805160ff191683800117855562000346565b8280016001018555821562000346579182015b828111156200034557825182559160200191906001019062000328565b5b50905062000355919062000359565b5090565b5b80821115620003745760008160009055506001016200035a565b5090565b6000604051905090565b600080fd5b600080fd5b600080fd5b600080fd5b6000601f19601f8301169050919050565b7f4e487b7100000000000000000000000000000000000000000000000000000000600052604160045260246000fd5b620003e18262000396565b810181811067ffffffffffffffff82111715620004035762000402620003a7565b5b80604052505050565b60006200041862000378565b9050620004268282620003d6565b919050565b600067ffffffffffffffff821115620004495762000448620003a7565b5b620004548262000396565b9050602081019050919050565b60005b838110156200048157808201518184015260208101905062000464565b8381111562000491576000848401525b50505050565b6000620004ae620004a8846200042b565b6200040c565b905082815260208101848484011115620004cd57620004cc62000391565b5b620004da84828562000461565b509392505050565b600082601f830112620004fa57620004f96200038c565b5b81516200050c84826020860162000497565b91505092915050565b6000602082840312156200052e576200052d62000382565b5b600082015167ffffffffffffffff8111156200054f576200054e62000387565b5b6200055d84828501620004e2565b91505092915050565b600081519050919050565b600082825260208201905092915050565b60006200058f8262000566565b6200059b818562000571565b9350620005ad81856020860162000461565b620005b88162000396565b840191505092915050565b60006040820190508181036000830152620005df818562000582565b90508181036020830152620005f5818462000582565b90509392505050565b7f4e487b7100000000000000000000000000000000000000000000000000000000600052602260045260246000fd5b600060028204905060018216806200064657607f821691505b602082108114156200065d576200065c620005fe565b5b50919050565b614fa280620006736000396000f3fe60806040526004361061019c5760003560e01c80637d7c963b116100ec578063b88d4fde1161008a578063e985e9c511610064578063e985e9c514610624578063f2c298be14610661578063fb825e5f1461067d578063fe2c6198146106a85761019c565b8063b88d4fde14610581578063bf40fac1146105aa578063c87b56dd146105e75761019c565b80638f32d59b116100c65780638f32d59b146104c557806395d89b41146104f05780639791c0971461051b578063a22cb465146105585761019c565b80637d7c963b146104205780638a53ddb91461045d5780638da5cb5b1461049a5761019c565b80632d551432116101595780634622ab03116101335780634622ab03146103405780636352211e1461037d57806370a08231146103ba578063721c2edb146103f75761019c565b80632d551432146102d55780633ccfd60b1461030057806342842e0e146103175761019c565b806301ffc9a7146101a157806306fdde03146101de578063081812fc14610209578063095ea7b31461024657806323b872dd1461026f5780632644923514610298575b600080fd5b3480156101ad57600080fd5b506101c860048036038101906101c39190613246565b6106e5565b6040516101d5919061328e565b60405180910390f35b3480156101ea57600080fd5b506101f36107c7565b6040516102009190613342565b60405180910390f35b34801561021557600080fd5b50610230600480360381019061022b919061339a565b610859565b60405161023d9190613408565b60405180910390f35b34801561025257600080fd5b5061026d6004803603810190610268919061344f565b6108de565b005b34801561027b57600080fd5b506102966004803603810190610291919061348f565b6109f6565b005b3480156102a457600080fd5b506102bf60048036038101906102ba9190613617565b610a56565b6040516102cc9190613408565b60405180910390f35b3480156102e157600080fd5b506102ea610a9f565b6040516102f79190613342565b60405180910390f35b34801561030c57600080fd5b50610315610b2d565b005b34801561032357600080fd5b5061033e6004803603810190610339919061348f565b610bf3565b005b34801561034c57600080fd5b506103676004803603810190610362919061339a565b610c13565b6040516103749190613342565b60405180910390f35b34801561038957600080fd5b506103a4600480360381019061039f919061339a565b610cb3565b6040516103b19190613408565b60405180910390f35b3480156103c657600080fd5b506103e160048036038101906103dc9190613660565b610d65565b6040516103ee919061369c565b60405180910390f35b34801561040357600080fd5b5061041e60048036038101906104199190613717565b610e1d565b005b34801561042c57600080fd5b50610447600480360381019061044291906137cb565b610f18565b6040516104549190613342565b60405180910390f35b34801561046957600080fd5b50610484600480360381019061047f9190613843565b610ff1565b6040516104919190613342565b60405180910390f35b3480156104a657600080fd5b506104af6110c4565b6040516104bc91906138e5565b60405180910390f35b3480156104d157600080fd5b506104da6110ea565b6040516104e7919061328e565b60405180910390f35b3480156104fc57600080fd5b50610505611142565b6040516105129190613342565b60405180910390f35b34801561052757600080fd5b50610542600480360381019061053d9190613900565b6111d4565b60405161054f919061328e565b60405180910390f35b34801561056457600080fd5b5061057f600480360381019061057a9190613979565b611288565b005b34801561058d57600080fd5b506105a860048036038101906105a39190613a5a565b61129e565b005b3480156105b657600080fd5b506105d160048036038101906105cc9190613900565b611300565b6040516105de9190613408565b60405180910390f35b3480156105f357600080fd5b5061060e6004803603810190610609919061339a565b61134b565b60405161061b9190613342565b60405180910390f35b34801561063057600080fd5b5061064b60048036038101906106469190613add565b61149d565b604051610658919061328e565b60405180910390f35b61067b60048036038101906106769190613900565b611531565b005b34801561068957600080fd5b50610692611a44565b60405161069f9190613c29565b60405180910390f35b3480156106b457600080fd5b506106cf60048036038101906106ca9190613900565b611c22565b6040516106dc919061369c565b60405180910390f35b60007f80ac58cd000000000000000000000000000000000000000000000000000000007bffffffffffffffffffffffffffffffffffffffffffffffffffffffff1916827bffffffffffffffffffffffffffffffffffffffffffffffffffffffff191614806107b057507f5b5e139f000000000000000000000000000000000000000000000000000000007bffffffffffffffffffffffffffffffffffffffffffffffffffffffff1916827bffffffffffffffffffffffffffffffffffffffffffffffffffffffff1916145b806107c057506107bf82611d61565b5b9050919050565b6060600080546107d690613c7a565b80601f016020809104026020016040519081016040528092919081815260200182805461080290613c7a565b801561084f5780601f106108245761010080835404028352916020019161084f565b820191906000526020600020905b81548152906001019060200180831161083257829003601f168201915b5050505050905090565b600061086482611dcb565b6108a3576040517f08c379a000000000000000000000000000000000000000000000000000000000815260040161089a90613d1e565b60405180910390fd5b6004600083815260200190815260200160002060009054906101000a900473ffffffffffffffffffffffffffffffffffffffff169050919050565b60006108e982610cb3565b90508073ffffffffffffffffffffffffffffffffffffffff168373ffffffffffffffffffffffffffffffffffffffff16141561095a576040517f08c379a000000000000000000000000000000000000000000000000000000000815260040161095190613db0565b60405180910390fd5b8073ffffffffffffffffffffffffffffffffffffffff16610979611e37565b73ffffffffffffffffffffffffffffffffffffffff1614806109a857506109a7816109a2611e37565b61149d565b5b6109e7576040517f08c379a00000000000000000000000000000000000000000000000000000000081526004016109de90613e42565b60405180910390fd5b6109f18383611e3f565b505050565b610a07610a01611e37565b82611ef8565b610a46576040517f08c379a0000000000000000000000000000000000000000000000000000000008152600401610a3d90613ed4565b60405180910390fd5b610a51838383611fd6565b505050565b600c818051602081018201805184825260208301602085012081835280955050505050506000915054906101000a900473ffffffffffffffffffffffffffffffffffffffff1681565b60088054610aac90613c7a565b80601f0160208091040260200160405190810160405280929190818152602001828054610ad890613c7a565b8015610b255780601f10610afa57610100808354040283529160200191610b25565b820191906000526020600020905b815481529060010190602001808311610b0857829003601f168201915b505050505081565b610b356110ea565b610b3e57600080fd5b600047905060003373ffffffffffffffffffffffffffffffffffffffff1682604051610b6990613f25565b60006040518083038185875af1925050503d8060008114610ba6576040519150601f19603f3d011682016040523d82523d6000602084013e610bab565b606091505b5050905080610bef576040517f08c379a0000000000000000000000000000000000000000000000000000000008152600401610be690613f86565b60405180910390fd5b5050565b610c0e8383836040518060200160405280600081525061129e565b505050565b600e6020528060005260406000206000915090508054610c3290613c7a565b80601f0160208091040260200160405190810160405280929190818152602001828054610c5e90613c7a565b8015610cab5780601f10610c8057610100808354040283529160200191610cab565b820191906000526020600020905b815481529060010190602001808311610c8e57829003601f168201915b505050505081565b6000806002600084815260200190815260200160002060009054906101000a900473ffffffffffffffffffffffffffffffffffffffff169050600073ffffffffffffffffffffffffffffffffffffffff168173ffffffffffffffffffffffffffffffffffffffff161415610d5c576040517f08c379a0000000000000000000000000000000000000000000000000000000008152600401610d5390614018565b60405180910390fd5b80915050919050565b60008073ffffffffffffffffffffffffffffffffffffffff168273ffffffffffffffffffffffffffffffffffffffff161415610dd6576040517f08c379a0000000000000000000000000000000000000000000000000000000008152600401610dcd906140aa565b60405180910390fd5b600360008373ffffffffffffffffffffffffffffffffffffffff1673ffffffffffffffffffffffffffffffffffffffff168152602001908152602001600020549050919050565b600c8686604051610e2f9291906140fa565b908152602001604051809103902060009054906101000a900473ffffffffffffffffffffffffffffffffffffffff1673ffffffffffffffffffffffffffffffffffffffff163373ffffffffffffffffffffffffffffffffffffffff1614610ec2576040517f82b4290000000000000000000000000000000000000000000000000000000000815260040160405180910390fd5b8181600d8888604051610ed69291906140fa565b90815260200160405180910390208686604051610ef49291906140fa565b90815260200160405180910390209190610f0f9291906130b1565b50505050505050565b600d8280516020810182018051848252602083016020850120818352809550505050505081805160208101820180518482526020830160208501208183528095505050505050600091509150508054610f7090613c7a565b80601f0160208091040260200160405190810160405280929190818152602001828054610f9c90613c7a565b8015610fe95780601f10610fbe57610100808354040283529160200191610fe9565b820191906000526020600020905b815481529060010190602001808311610fcc57829003601f168201915b505050505081565b6060600d85856040516110059291906140fa565b908152602001604051809103902083836040516110239291906140fa565b9081526020016040518091039020805461103c90613c7a565b80601f016020809104026020016040519081016040528092919081815260200182805461106890613c7a565b80156110b55780601f1061108a576101008083540402835291602001916110b5565b820191906000526020600020905b81548152906001019060200180831161109857829003601f168201915b50505050509050949350505050565b600960009054906101000a900473ffffffffffffffffffffffffffffffffffffffff1681565b6000600960009054906101000a900473ffffffffffffffffffffffffffffffffffffffff1673ffffffffffffffffffffffffffffffffffffffff163373ffffffffffffffffffffffffffffffffffffffff1614905090565b60606001805461115190613c7a565b80601f016020809104026020016040519081016040528092919081815260200182805461117d90613c7a565b80156111ca5780601f1061119f576101008083540402835291602001916111ca565b820191906000526020600020905b8154815290600101906020018083116111ad57829003601f168201915b5050505050905090565b6000600361122584848080601f016020809104026020016040519081016040528093929190818152602001838380828437600081840152601f19601f8201169050808301925050505050505061223d565b101580156112805750600a61127d84848080601f016020809104026020016040519081016040528093929190818152602001838380828437600081840152601f19601f8201169050808301925050505050505061223d565b11155b905092915050565b61129a611293611e37565b83836123f2565b5050565b6112af6112a9611e37565b83611ef8565b6112ee576040517f08c379a00000000000000000000000000000000000000000000000000000000081526004016112e590613ed4565b60405180910390fd5b6112fa8484848461255f565b50505050565b6000600c83836040516113149291906140fa565b908152602001604051809103902060009054906101000a900473ffffffffffffffffffffffffffffffffffffffff16905092915050565b606061135682611dcb565b611395576040517f08c379a000000000000000000000000000000000000000000000000000000000815260040161138c90614185565b60405180910390fd5b60006006600084815260200190815260200160002080546113b590613c7a565b80601f01602080910402602001604051908101604052809291908181526020018280546113e190613c7a565b801561142e5780601f106114035761010080835404028352916020019161142e565b820191906000526020600020905b81548152906001019060200180831161141157829003601f168201915b50505050509050600061143f6125bb565b9050600081511415611455578192505050611498565b60008251111561148a5780826040516020016114729291906141d6565b60405160208183030381529060405292505050611498565b611493846125d2565b925050505b919050565b6000600560008473ffffffffffffffffffffffffffffffffffffffff1673ffffffffffffffffffffffffffffffffffffffff16815260200190815260200160002060008373ffffffffffffffffffffffffffffffffffffffff1673ffffffffffffffffffffffffffffffffffffffff16815260200190815260200160002060009054906101000a900460ff16905092915050565b600073ffffffffffffffffffffffffffffffffffffffff16600c838360405161155b9291906140fa565b908152602001604051809103902060009054906101000a900473ffffffffffffffffffffffffffffffffffffffff1673ffffffffffffffffffffffffffffffffffffffff16146115d7576040517f3a81d6fc00000000000000000000000000000000000000000000000000000000815260040160405180910390fd5b6115e182826111d4565b6116245781816040517f7f19f48d00000000000000000000000000000000000000000000000000000000815260040161161b929190614227565b60405180910390fd5b60006116308383611c22565b90508034101561166c576040517f81b5ad6800000000000000000000000000000000000000000000000000000000815260040160405180910390fd5b6000838360086040516020016116849392919061432b565b60405160208183030381529060405290506000600a82600b6040516020016116ae9392919061435c565b604051602081830303815290604052905060006116cb6007612679565b9050600061171c87878080601f016020809104026020016040519081016040528093929190818152602001838380828437600081840152601f19601f8201169050808301925050505050505061223d565b9050600061172982612687565b905061181d604051806060016040528060318152602001614ec36031913989898080601f016020809104026020016040519081016040528093929190818152602001838380828437600081840152601f19601f820116905080830192505050505050506008805461179990613c7a565b80601f01602080910402602001604051908101604052809291908181526020018280546117c590613c7a565b80156118125780601f106117e757610100808354040283529160200191611812565b820191906000526020600020905b8154815290600101906020018083116117f557829003601f168201915b5050505050866127e8565b33600c89896040516118309291906140fa565b908152602001604051809103902060006101000a81548173ffffffffffffffffffffffffffffffffffffffff021916908373ffffffffffffffffffffffffffffffffffffffff1602179055506118bb6040518060400160405280601b81526020017f2573206861732072656769737465726564206120646f6d61696e2100000000008152503361288a565b60006118f1866118ca87612926565b846040516020016118dd93929190614509565b604051602081830303815290604052612926565b905060008160405160200161190691906145b2565b6040516020818303038152906040529050611938604051806060016040528060398152602001614e8a60399139612abe565b6119776040518060400160405280600e81526020017f46696e616c20746f6b656e55524900000000000000000000000000000000000081525082611cc5565b611998604051806060016040528060398152602001614ef460399139612abe565b6119a23386612b57565b6119ac8582612b75565b33600c8b8b6040516119bf9291906140fa565b908152602001604051809103902060006101000a81548173ffffffffffffffffffffffffffffffffffffffff021916908373ffffffffffffffffffffffffffffffffffffffff1602179055508989600e60008881526020019081526020016000209190611a2d9291906130b1565b50611a386007612be9565b50505050505050505050565b6060611a846040518060400160405280601f81526020017f47657474696e6720616c6c206e616d65732066726f6d20636f6e747261637400815250612abe565b6000611a906007612679565b67ffffffffffffffff811115611aa957611aa86134ec565b5b604051908082528060200260200182016040528015611adc57816020015b6060815260200190600190039081611ac75790505b50905060005b611aec6007612679565b811015611c1a57600e60008281526020019081526020016000208054611b1190613c7a565b80601f0160208091040260200160405190810160405280929190818152602001828054611b3d90613c7a565b8015611b8a5780601f10611b5f57610100808354040283529160200191611b8a565b820191906000526020600020905b815481529060010190602001808311611b6d57829003601f168201915b5050505050828281518110611ba257611ba16145d4565b5b6020026020010181905250611c076040518060400160405280601781526020017f4e616d6520666f7220746f6b656e20256420697320257300000000000000000081525082848481518110611bfa57611bf96145d4565b5b6020026020010151612bff565b8080611c1290614632565b915050611ae2565b508091505090565b600080611c7284848080601f016020809104026020016040519081016040528093929190818152602001838380828437600081840152601f19601f8201169050808301925050505050505061223d565b905060008111611c8157600080fd5b6003811415611c9a5766b1a2bc2ec50000915050611cbf565b6004811415611cb357666a94d74f430000915050611cbf565b662386f26fc100009150505b92915050565b611d5d8282604051602401611cdb92919061467b565b6040516020818303038152906040527f4b5c4277000000000000000000000000000000000000000000000000000000007bffffffffffffffffffffffffffffffffffffffffffffffffffffffff19166020820180517bffffffffffffffffffffffffffffffffffffffffffffffffffffffff8381831617835250505050612c9e565b5050565b60007f01ffc9a7000000000000000000000000000000000000000000000000000000007bffffffffffffffffffffffffffffffffffffffffffffffffffffffff1916827bffffffffffffffffffffffffffffffffffffffffffffffffffffffff1916149050919050565b60008073ffffffffffffffffffffffffffffffffffffffff166002600084815260200190815260200160002060009054906101000a900473ffffffffffffffffffffffffffffffffffffffff1673ffffffffffffffffffffffffffffffffffffffff1614159050919050565b600033905090565b816004600083815260200190815260200160002060006101000a81548173ffffffffffffffffffffffffffffffffffffffff021916908373ffffffffffffffffffffffffffffffffffffffff160217905550808273ffffffffffffffffffffffffffffffffffffffff16611eb283610cb3565b73ffffffffffffffffffffffffffffffffffffffff167f8c5be1e5ebec7d5bd14f71427d1e84f3dd0314c0f7b2291e5b200ac8c7c3b92560405160405180910390a45050565b6000611f0382611dcb565b611f42576040517f08c379a0000000000000000000000000000000000000000000000000000000008152600401611f3990614724565b60405180910390fd5b6000611f4d83610cb3565b90508073ffffffffffffffffffffffffffffffffffffffff168473ffffffffffffffffffffffffffffffffffffffff161480611fbc57508373ffffffffffffffffffffffffffffffffffffffff16611fa484610859565b73ffffffffffffffffffffffffffffffffffffffff16145b80611fcd5750611fcc818561149d565b5b91505092915050565b8273ffffffffffffffffffffffffffffffffffffffff16611ff682610cb3565b73ffffffffffffffffffffffffffffffffffffffff161461204c576040517f08c379a0000000000000000000000000000000000000000000000000000000008152600401612043906147b6565b60405180910390fd5b600073ffffffffffffffffffffffffffffffffffffffff168273ffffffffffffffffffffffffffffffffffffffff1614156120bc576040517f08c379a00000000000000000000000000000000000000000000000000000000081526004016120b390614848565b60405180910390fd5b6120c7838383612cc7565b6120d2600082611e3f565b6001600360008573ffffffffffffffffffffffffffffffffffffffff1673ffffffffffffffffffffffffffffffffffffffff16815260200190815260200160002060008282546121229190614868565b925050819055506001600360008473ffffffffffffffffffffffffffffffffffffffff1673ffffffffffffffffffffffffffffffffffffffff1681526020019081526020016000206000828254612179919061489c565b92505081905550816002600083815260200190815260200160002060006101000a81548173ffffffffffffffffffffffffffffffffffffffff021916908373ffffffffffffffffffffffffffffffffffffffff160217905550808273ffffffffffffffffffffffffffffffffffffffff168473ffffffffffffffffffffffffffffffffffffffff167fddf252ad1be2c89b69c2b068fc378daa952ba7f163c4a11628f55a4df523b3ef60405160405180910390a4612238838383612ccc565b505050565b60008060008084519050600092505b808210156123e7576000858381518110612269576122686145d4565b5b602001015160f81c60f81b9050608060f81b817effffffffffffffffffffffffffffffffffffffffffffffffffffffffffffff191610156122b8576001836122b1919061489c565b92506123d3565b60e060f81b817effffffffffffffffffffffffffffffffffffffffffffffffffffffffffffff191610156122fa576002836122f3919061489c565b92506123d2565b60f060f81b817effffffffffffffffffffffffffffffffffffffffffffffffffffffffffffff1916101561233c57600383612335919061489c565b92506123d1565b60f8801b817effffffffffffffffffffffffffffffffffffffffffffffffffffffffffffff1916101561237d57600483612376919061489c565b92506123d0565b60fc60f81b817effffffffffffffffffffffffffffffffffffffffffffffffffffffffffffff191610156123bf576005836123b8919061489c565b92506123cf565b6006836123cc919061489c565b92505b5b5b5b5b5082806123df90614632565b93505061224c565b829350505050919050565b8173ffffffffffffffffffffffffffffffffffffffff168373ffffffffffffffffffffffffffffffffffffffff161415612461576040517f08c379a00000000000000000000000000000000000000000000000000000000081526004016124589061493e565b60405180910390fd5b80600560008573ffffffffffffffffffffffffffffffffffffffff1673ffffffffffffffffffffffffffffffffffffffff16815260200190815260200160002060008473ffffffffffffffffffffffffffffffffffffffff1673ffffffffffffffffffffffffffffffffffffffff16815260200190815260200160002060006101000a81548160ff0219169083151502179055508173ffffffffffffffffffffffffffffffffffffffff168373ffffffffffffffffffffffffffffffffffffffff167f17307eab39ab6107e8899845ad3d59bd9653f200f220920489ca2b5937696c3183604051612552919061328e565b60405180910390a3505050565b61256a848484611fd6565b61257684848484612cd1565b6125b5576040517f08c379a00000000000000000000000000000000000000000000000000000000081526004016125ac906149d0565b60405180910390fd5b50505050565b606060405180602001604052806000815250905090565b60606125dd82611dcb565b61261c576040517f08c379a000000000000000000000000000000000000000000000000000000000815260040161261390614a62565b60405180910390fd5b60006126266125bb565b905060008151116126465760405180602001604052806000815250612671565b8061265084612687565b6040516020016126619291906141d6565b6040516020818303038152906040525b915050919050565b600081600001549050919050565b606060008214156126cf576040518060400160405280600181526020017f300000000000000000000000000000000000000000000000000000000000000081525090506127e3565b600082905060005b600082146127015780806126ea90614632565b915050600a826126fa9190614ab1565b91506126d7565b60008167ffffffffffffffff81111561271d5761271c6134ec565b5b6040519080825280601f01601f19166020018201604052801561274f5781602001600182028036833780820191505090505b5090505b600085146127dc576001826127689190614868565b9150600a856127779190614ae2565b6030612783919061489c565b60f81b818381518110612799576127986145d4565b5b60200101907effffffffffffffffffffffffffffffffffffffffffffffffffffffffffffff1916908160001a905350600a856127d59190614ab1565b9450612753565b8093505050505b919050565b612884848484846040516024016128029493929190614b13565b6040516020818303038152906040527f9fd009f5000000000000000000000000000000000000000000000000000000007bffffffffffffffffffffffffffffffffffffffffffffffffffffffff19166020820180517bffffffffffffffffffffffffffffffffffffffffffffffffffffffff8381831617835250505050612c9e565b50505050565b61292282826040516024016128a0929190614b6d565b6040516020818303038152906040527f319af333000000000000000000000000000000000000000000000000000000007bffffffffffffffffffffffffffffffffffffffffffffffffffffffff19166020820180517bffffffffffffffffffffffffffffffffffffffffffffffffffffffff8381831617835250505050612c9e565b5050565b6060600082519050600081141561294f5760405180602001604052806000815250915050612ab9565b60006003600283612960919061489c565b61296a9190614ab1565b60046129769190614b9d565b90506000602082612987919061489c565b67ffffffffffffffff8111156129a05761299f6134ec565b5b6040519080825280601f01601f1916602001820160405280156129d25781602001600182028036833780820191505090505b5090506000604051806060016040528060408152602001614f2d604091399050600181016020830160005b86811015612a765760038101905062ffffff818a015116603f8160121c168401518060081b905060ff603f83600c1c1686015116810190508060081b905060ff603f8360061c1686015116810190508060081b905060ff603f831686015116810190508060e01b905080845260048401935050506129fd565b506003860660018114612a905760028114612aa057612aab565b613d3d60f01b6002830352612aab565b603d60f81b60018303525b508484525050819450505050505b919050565b612b5481604051602401612ad29190613342565b6040516020818303038152906040527f41304fac000000000000000000000000000000000000000000000000000000007bffffffffffffffffffffffffffffffffffffffffffffffffffffffff19166020820180517bffffffffffffffffffffffffffffffffffffffffffffffffffffffff8381831617835250505050612c9e565b50565b612b71828260405180602001604052806000815250612e59565b5050565b612b7e82611dcb565b612bbd576040517f08c379a0000000000000000000000000000000000000000000000000000000008152600401612bb490614c69565b60405180910390fd5b80600660008481526020019081526020016000209080519060200190612be4929190613137565b505050565b6001816000016000828254019250508190555050565b612c99838383604051602401612c1793929190614c89565b6040516020818303038152906040527fa3f5c739000000000000000000000000000000000000000000000000000000007bffffffffffffffffffffffffffffffffffffffffffffffffffffffff19166020820180517bffffffffffffffffffffffffffffffffffffffffffffffffffffffff8381831617835250505050612c9e565b505050565b60008151905060006a636f6e736f6c652e6c6f679050602083016000808483855afa5050505050565b505050565b505050565b6000612cf28473ffffffffffffffffffffffffffffffffffffffff16612eb4565b15612e4c578373ffffffffffffffffffffffffffffffffffffffff1663150b7a02612d1b611e37565b8786866040518563ffffffff1660e01b8152600401612d3d9493929190614d23565b6020604051808303816000875af1925050508015612d7957506040513d601f19601f82011682018060405250810190612d769190614d84565b60015b612dfc573d8060008114612da9576040519150601f19603f3d011682016040523d82523d6000602084013e612dae565b606091505b50600081511415612df4576040517f08c379a0000000000000000000000000000000000000000000000000000000008152600401612deb906149d0565b60405180910390fd5b805181602001fd5b63150b7a0260e01b7bffffffffffffffffffffffffffffffffffffffffffffffffffffffff1916817bffffffffffffffffffffffffffffffffffffffffffffffffffffffff191614915050612e51565b600190505b949350505050565b612e638383612ed7565b612e706000848484612cd1565b612eaf576040517f08c379a0000000000000000000000000000000000000000000000000000000008152600401612ea6906149d0565b60405180910390fd5b505050565b6000808273ffffffffffffffffffffffffffffffffffffffff163b119050919050565b600073ffffffffffffffffffffffffffffffffffffffff168273ffffffffffffffffffffffffffffffffffffffff161415612f47576040517f08c379a0000000000000000000000000000000000000000000000000000000008152600401612f3e90614dfd565b60405180910390fd5b612f5081611dcb565b15612f90576040517f08c379a0000000000000000000000000000000000000000000000000000000008152600401612f8790614e69565b60405180910390fd5b612f9c60008383612cc7565b6001600360008473ffffffffffffffffffffffffffffffffffffffff1673ffffffffffffffffffffffffffffffffffffffff1681526020019081526020016000206000828254612fec919061489c565b92505081905550816002600083815260200190815260200160002060006101000a81548173ffffffffffffffffffffffffffffffffffffffff021916908373ffffffffffffffffffffffffffffffffffffffff160217905550808273ffffffffffffffffffffffffffffffffffffffff16600073ffffffffffffffffffffffffffffffffffffffff167fddf252ad1be2c89b69c2b068fc378daa952ba7f163c4a11628f55a4df523b3ef60405160405180910390a46130ad60008383612ccc565b5050565b8280546130bd90613c7a565b90600052602060002090601f0160209004810192826130df5760008555613126565b82601f106130f857803560ff1916838001178555613126565b82800160010185558215613126579182015b8281111561312557823582559160200191906001019061310a565b5b50905061313391906131bd565b5090565b82805461314390613c7a565b90600052602060002090601f01602090048101928261316557600085556131ac565b82601f1061317e57805160ff19168380011785556131ac565b828001600101855582156131ac579182015b828111156131ab578251825591602001919060010190613190565b5b5090506131b991906131bd565b5090565b5b808211156131d65760008160009055506001016131be565b5090565b6000604051905090565b600080fd5b600080fd5b60007fffffffff0000000000000000000000000000000000000000000000000000000082169050919050565b613223816131ee565b811461322e57600080fd5b50565b6000813590506132408161321a565b92915050565b60006020828403121561325c5761325b6131e4565b5b600061326a84828501613231565b91505092915050565b60008115159050919050565b61328881613273565b82525050565b60006020820190506132a3600083018461327f565b92915050565b600081519050919050565b600082825260208201905092915050565b60005b838110156132e35780820151818401526020810190506132c8565b838111156132f2576000848401525b50505050565b6000601f19601f8301169050919050565b6000613314826132a9565b61331e81856132b4565b935061332e8185602086016132c5565b613337816132f8565b840191505092915050565b6000602082019050818103600083015261335c8184613309565b905092915050565b6000819050919050565b61337781613364565b811461338257600080fd5b50565b6000813590506133948161336e565b92915050565b6000602082840312156133b0576133af6131e4565b5b60006133be84828501613385565b91505092915050565b600073ffffffffffffffffffffffffffffffffffffffff82169050919050565b60006133f2826133c7565b9050919050565b613402816133e7565b82525050565b600060208201905061341d60008301846133f9565b92915050565b61342c816133e7565b811461343757600080fd5b50565b60008135905061344981613423565b92915050565b60008060408385031215613466576134656131e4565b5b60006134748582860161343a565b925050602061348585828601613385565b9150509250929050565b6000806000606084860312156134a8576134a76131e4565b5b60006134b68682870161343a565b93505060206134c78682870161343a565b92505060406134d886828701613385565b9150509250925092565b600080fd5b600080fd5b7f4e487b7100000000000000000000000000000000000000000000000000000000600052604160045260246000fd5b613524826132f8565b810181811067ffffffffffffffff82111715613543576135426134ec565b5b80604052505050565b60006135566131da565b9050613562828261351b565b919050565b600067ffffffffffffffff821115613582576135816134ec565b5b61358b826132f8565b9050602081019050919050565b82818337600083830152505050565b60006135ba6135b584613567565b61354c565b9050828152602081018484840111156135d6576135d56134e7565b5b6135e1848285613598565b509392505050565b600082601f8301126135fe576135fd6134e2565b5b813561360e8482602086016135a7565b91505092915050565b60006020828403121561362d5761362c6131e4565b5b600082013567ffffffffffffffff81111561364b5761364a6131e9565b5b613657848285016135e9565b91505092915050565b600060208284031215613676576136756131e4565b5b60006136848482850161343a565b91505092915050565b61369681613364565b82525050565b60006020820190506136b1600083018461368d565b92915050565b600080fd5b600080fd5b60008083601f8401126136d7576136d66134e2565b5b8235905067ffffffffffffffff8111156136f4576136f36136b7565b5b6020830191508360018202830111156137105761370f6136bc565b5b9250929050565b60008060008060008060608789031215613734576137336131e4565b5b600087013567ffffffffffffffff811115613752576137516131e9565b5b61375e89828a016136c1565b9650965050602087013567ffffffffffffffff811115613781576137806131e9565b5b61378d89828a016136c1565b9450945050604087013567ffffffffffffffff8111156137b0576137af6131e9565b5b6137bc89828a016136c1565b92509250509295509295509295565b600080604083850312156137e2576137e16131e4565b5b600083013567ffffffffffffffff811115613800576137ff6131e9565b5b61380c858286016135e9565b925050602083013567ffffffffffffffff81111561382d5761382c6131e9565b5b613839858286016135e9565b9150509250929050565b6000806000806040858703121561385d5761385c6131e4565b5b600085013567ffffffffffffffff81111561387b5761387a6131e9565b5b613887878288016136c1565b9450945050602085013567ffffffffffffffff8111156138aa576138a96131e9565b5b6138b6878288016136c1565b925092505092959194509250565b60006138cf826133c7565b9050919050565b6138df816138c4565b82525050565b60006020820190506138fa60008301846138d6565b92915050565b60008060208385031215613917576139166131e4565b5b600083013567ffffffffffffffff811115613935576139346131e9565b5b613941858286016136c1565b92509250509250929050565b61395681613273565b811461396157600080fd5b50565b6000813590506139738161394d565b92915050565b600080604083850312156139905761398f6131e4565b5b600061399e8582860161343a565b92505060206139af85828601613964565b9150509250929050565b600067ffffffffffffffff8211156139d4576139d36134ec565b5b6139dd826132f8565b9050602081019050919050565b60006139fd6139f8846139b9565b61354c565b905082815260208101848484011115613a1957613a186134e7565b5b613a24848285613598565b509392505050565b600082601f830112613a4157613a406134e2565b5b8135613a518482602086016139ea565b91505092915050565b60008060008060808587031215613a7457613a736131e4565b5b6000613a828782880161343a565b9450506020613a938782880161343a565b9350506040613aa487828801613385565b925050606085013567ffffffffffffffff811115613ac557613ac46131e9565b5b613ad187828801613a2c565b91505092959194509250565b60008060408385031215613af457613af36131e4565b5b6000613b028582860161343a565b9250506020613b138582860161343a565b9150509250929050565b600081519050919050565b600082825260208201905092915050565b6000819050602082019050919050565b600082825260208201905092915050565b6000613b65826132a9565b613b6f8185613b49565b9350613b7f8185602086016132c5565b613b88816132f8565b840191505092915050565b6000613b9f8383613b5a565b905092915050565b6000602082019050919050565b6000613bbf82613b1d565b613bc98185613b28565b935083602082028501613bdb85613b39565b8060005b85811015613c175784840389528151613bf88582613b93565b9450613c0383613ba7565b925060208a01995050600181019050613bdf565b50829750879550505050505092915050565b60006020820190508181036000830152613c438184613bb4565b905092915050565b7f4e487b7100000000000000000000000000000000000000000000000000000000600052602260045260246000fd5b60006002820490506001821680613c9257607f821691505b60208210811415613ca657613ca5613c4b565b5b50919050565b7f4552433732313a20617070726f76656420717565727920666f72206e6f6e657860008201527f697374656e7420746f6b656e0000000000000000000000000000000000000000602082015250565b6000613d08602c836132b4565b9150613d1382613cac565b604082019050919050565b60006020820190508181036000830152613d3781613cfb565b9050919050565b7f4552433732313a20617070726f76616c20746f2063757272656e74206f776e6560008201527f7200000000000000000000000000000000000000000000000000000000000000602082015250565b6000613d9a6021836132b4565b9150613da582613d3e565b604082019050919050565b60006020820190508181036000830152613dc981613d8d565b9050919050565b7f4552433732313a20617070726f76652063616c6c6572206973206e6f74206f7760008201527f6e6572206e6f7220617070726f76656420666f7220616c6c0000000000000000602082015250565b6000613e2c6038836132b4565b9150613e3782613dd0565b604082019050919050565b60006020820190508181036000830152613e5b81613e1f565b9050919050565b7f4552433732313a207472616e736665722063616c6c6572206973206e6f74206f60008201527f776e6572206e6f7220617070726f766564000000000000000000000000000000602082015250565b6000613ebe6031836132b4565b9150613ec982613e62565b604082019050919050565b60006020820190508181036000830152613eed81613eb1565b9050919050565b600081905092915050565b50565b6000613f0f600083613ef4565b9150613f1a82613eff565b600082019050919050565b6000613f3082613f02565b9150819050919050565b7f4661696c656420746f207769746864726177204d617469630000000000000000600082015250565b6000613f706018836132b4565b9150613f7b82613f3a565b602082019050919050565b60006020820190508181036000830152613f9f81613f63565b9050919050565b7f4552433732313a206f776e657220717565727920666f72206e6f6e657869737460008201527f656e7420746f6b656e0000000000000000000000000000000000000000000000602082015250565b60006140026029836132b4565b915061400d82613fa6565b604082019050919050565b6000602082019050818103600083015261403181613ff5565b9050919050565b7f4552433732313a2062616c616e636520717565727920666f7220746865207a6560008201527f726f206164647265737300000000000000000000000000000000000000000000602082015250565b6000614094602a836132b4565b915061409f82614038565b604082019050919050565b600060208201905081810360008301526140c381614087565b9050919050565b600081905092915050565b60006140e183856140ca565b93506140ee838584613598565b82840190509392505050565b60006141078284866140d5565b91508190509392505050565b7f45524337323155524953746f726167653a2055524920717565727920666f722060008201527f6e6f6e6578697374656e7420746f6b656e000000000000000000000000000000602082015250565b600061416f6031836132b4565b915061417a82614113565b604082019050919050565b6000602082019050818103600083015261419e81614162565b9050919050565b60006141b0826132a9565b6141ba81856140ca565b93506141ca8185602086016132c5565b80840191505092915050565b60006141e282856141a5565b91506141ee82846141a5565b91508190509392505050565b600061420683856132b4565b9350614213838584613598565b61421c836132f8565b840190509392505050565b600060208201905081810360008301526142428184866141fa565b90509392505050565b7f2e00000000000000000000000000000000000000000000000000000000000000600082015250565b60006142816001836140ca565b915061428c8261424b565b600182019050919050565b60008190508160005260206000209050919050565b600081546142b981613c7a565b6142c381866140ca565b945060018216600081146142de57600181146142ef57614322565b60ff19831686528186019350614322565b6142f885614297565b60005b8381101561431a578154818901526001820191506020810190506142fb565b838801955050505b50505092915050565b60006143388285876140d5565b915061434382614274565b915061434f82846142ac565b9150819050949350505050565b600061436882866142ac565b915061437482856141a5565b915061438082846142ac565b9150819050949350505050565b7f7b226e616d65223a202200000000000000000000000000000000000000000000600082015250565b60006143c3600a836140ca565b91506143ce8261438d565b600a82019050919050565b7f222c20226465736372697074696f6e223a20224120646f6d61696e206f6e207460008201527f686520446f706520476f6174206e616d652073657276696365222c2022696d6160208201527f6765223a2022646174613a696d6167652f7376672b786d6c3b6261736536342c604082015250565b600061445b6060836140ca565b9150614466826143d9565b606082019050919050565b7f222c226c656e677468223a220000000000000000000000000000000000000000600082015250565b60006144a7600c836140ca565b91506144b282614471565b600c82019050919050565b7f227d000000000000000000000000000000000000000000000000000000000000600082015250565b60006144f36002836140ca565b91506144fe826144bd565b600282019050919050565b6000614514826143b6565b915061452082866141a5565b915061452b8261444e565b915061453782856141a5565b91506145428261449a565b915061454e82846141a5565b9150614559826144e6565b9150819050949350505050565b7f646174613a6170706c69636174696f6e2f6a736f6e3b6261736536342c000000600082015250565b600061459c601d836140ca565b91506145a782614566565b601d82019050919050565b60006145bd8261458f565b91506145c982846141a5565b915081905092915050565b7f4e487b7100000000000000000000000000000000000000000000000000000000600052603260045260246000fd5b7f4e487b7100000000000000000000000000000000000000000000000000000000600052601160045260246000fd5b600061463d82613364565b91507fffffffffffffffffffffffffffffffffffffffffffffffffffffffffffffffff8214156146705761466f614603565b5b600182019050919050565b600060408201905081810360008301526146958185613309565b905081810360208301526146a98184613309565b90509392505050565b7f4552433732313a206f70657261746f7220717565727920666f72206e6f6e657860008201527f697374656e7420746f6b656e0000000000000000000000000000000000000000602082015250565b600061470e602c836132b4565b9150614719826146b2565b604082019050919050565b6000602082019050818103600083015261473d81614701565b9050919050565b7f4552433732313a207472616e736665722066726f6d20696e636f72726563742060008201527f6f776e6572000000000000000000000000000000000000000000000000000000602082015250565b60006147a06025836132b4565b91506147ab82614744565b604082019050919050565b600060208201905081810360008301526147cf81614793565b9050919050565b7f4552433732313a207472616e7366657220746f20746865207a65726f2061646460008201527f7265737300000000000000000000000000000000000000000000000000000000602082015250565b60006148326024836132b4565b915061483d826147d6565b604082019050919050565b6000602082019050818103600083015261486181614825565b9050919050565b600061487382613364565b915061487e83613364565b92508282101561489157614890614603565b5b828203905092915050565b60006148a782613364565b91506148b283613364565b9250827fffffffffffffffffffffffffffffffffffffffffffffffffffffffffffffffff038211156148e7576148e6614603565b5b828201905092915050565b7f4552433732313a20617070726f766520746f2063616c6c657200000000000000600082015250565b60006149286019836132b4565b9150614933826148f2565b602082019050919050565b600060208201905081810360008301526149578161491b565b9050919050565b7f4552433732313a207472616e7366657220746f206e6f6e20455243373231526560008201527f63656976657220696d706c656d656e7465720000000000000000000000000000602082015250565b60006149ba6032836132b4565b91506149c58261495e565b604082019050919050565b600060208201905081810360008301526149e9816149ad565b9050919050565b7f4552433732314d657461646174613a2055524920717565727920666f72206e6f60008201527f6e6578697374656e7420746f6b656e0000000000000000000000000000000000602082015250565b6000614a4c602f836132b4565b9150614a57826149f0565b604082019050919050565b60006020820190508181036000830152614a7b81614a3f565b9050919050565b7f4e487b7100000000000000000000000000000000000000000000000000000000600052601260045260246000fd5b6000614abc82613364565b9150614ac783613364565b925082614ad757614ad6614a82565b5b828204905092915050565b6000614aed82613364565b9150614af883613364565b925082614b0857614b07614a82565b5b828206905092915050565b60006080820190508181036000830152614b2d8187613309565b90508181036020830152614b418186613309565b90508181036040830152614b558185613309565b9050614b64606083018461368d565b95945050505050565b60006040820190508181036000830152614b878185613309565b9050614b9660208301846133f9565b9392505050565b6000614ba882613364565b9150614bb383613364565b9250817fffffffffffffffffffffffffffffffffffffffffffffffffffffffffffffffff0483118215151615614bec57614beb614603565b5b828202905092915050565b7f45524337323155524953746f726167653a2055524920736574206f66206e6f6e60008201527f6578697374656e7420746f6b656e000000000000000000000000000000000000602082015250565b6000614c53602e836132b4565b9150614c5e82614bf7565b604082019050919050565b60006020820190508181036000830152614c8281614c46565b9050919050565b60006060820190508181036000830152614ca38186613309565b9050614cb2602083018561368d565b8181036040830152614cc48184613309565b9050949350505050565b600081519050919050565b600082825260208201905092915050565b6000614cf582614cce565b614cff8185614cd9565b9350614d0f8185602086016132c5565b614d18816132f8565b840191505092915050565b6000608082019050614d3860008301876133f9565b614d4560208301866133f9565b614d52604083018561368d565b8181036060830152614d648184614cea565b905095945050505050565b600081519050614d7e8161321a565b92915050565b600060208284031215614d9a57614d996131e4565b5b6000614da884828501614d6f565b91505092915050565b7f4552433732313a206d696e7420746f20746865207a65726f2061646472657373600082015250565b6000614de76020836132b4565b9150614df282614db1565b602082019050919050565b60006020820190508181036000830152614e1681614dda565b9050919050565b7f4552433732313a20746f6b656e20616c7265616479206d696e74656400000000600082015250565b6000614e53601c836132b4565b9150614e5e82614e1d565b602082019050919050565b60006020820190508181036000830152614e8281614e46565b905091905056fe0a2d2d2d2d2d2d2d2d2d2d2d2d2d2d2d2d2d2d2d2d2d2d2d2d2d2d2d2d2d2d2d2d2d2d2d2d2d2d2d2d2d2d2d2d2d2d2d2d2d2d2d2d2d2d2d2d5265676973746572696e672025732e2573206f6e2074686520636f6e7472616374207769746820746f6b656e49442025642d2d2d2d2d2d2d2d2d2d2d2d2d2d2d2d2d2d2d2d2d2d2d2d2d2d2d2d2d2d2d2d2d2d2d2d2d2d2d2d2d2d2d2d2d2d2d2d2d2d2d2d2d2d2d2d0a4142434445464748494a4b4c4d4e4f505152535455565758595a6162636465666768696a6b6c6d6e6f707172737475767778797a303132333435363738392b2fa264697066735822122097a63ee3dfb9f6f1f77244025890d02271bf05918cc36585d078c701566f17a964736f6c634300080a00333c73766720786d6c6e733d22687474703a2f2f7777772e77332e6f72672f323030302f737667222077696474683d2232373022206865696768743d22323730222066696c6c3d226e6f6e65223e3c706174682066696c6c3d2275726c282342292220643d224d302030683237307632373048307a222f3e3c646566733e3c66696c7465722069643d22412220636f6c6f722d696e746572706f6c6174696f6e2d66696c746572733d2273524742222066696c746572556e6974733d227573657253706163654f6e55736522206865696768743d22323730222077696474683d22323730223e3c666544726f70536861646f772064783d2230222064793d22312220737464446576696174696f6e3d22322220666c6f6f642d6f7061636974793d222e323235222077696474683d223230302522206865696768743d2232303025222f3e3c2f66696c7465723e3c2f646566733e3c7061746820643d224d37322e3836332034322e393439632d2e3636382d2e3338372d312e3432362d2e35392d322e3139372d2e3539732d312e3532392e3230342d322e3139372e35396c2d31302e30383120362e3033322d362e383520332e3933342d31302e30383120362e303332632d2e3636382e3338372d312e3432362e35392d322e3139372e3539732d312e3532392d2e3230342d322e3139372d2e35396c2d382e3031332d342e37323161342e353220342e35322030203020312d312e3538392d312e363136632d2e3338342d2e3636352d2e3539342d312e3431382d2e3630382d322e313837762d392e3331632d2e3031332d2e3737352e3138352d312e3533382e3537322d322e32303861342e323520342e323520302030203120312e3632352d312e3539356c372e3838342d342e3539632e3636382d2e33383720312e3432362d2e353920322e3139372d2e353973312e3532392e32303420322e3139372e35396c372e38383420342e353961342e353220342e353220302030203120312e35383920312e363136632e3338342e3636352e35393420312e3431382e36303820322e31383776362e3033326c362e38352d342e303635762d362e303332632e3031332d2e3737352d2e3138352d312e3533382d2e3537322d322e32303861342e323520342e32352030203020302d312e3632352d312e3539354c34312e3435362032342e3539632d2e3636382d2e3338372d312e3432362d2e35392d322e3139372d2e3539732d312e3532392e3230342d322e3139372e35396c2d31342e38363420382e36353561342e323520342e32352030203020302d312e36323520312e353935632d2e3338372e36372d2e35383520312e3433342d2e35373220322e3230387631372e343431632d2e3031332e3737352e31383520312e3533382e35373220322e32303861342e323520342e323520302030203020312e36323520312e3539356c31342e38363420382e363535632e3636382e33383720312e3432362e353920322e3139372e353973312e3532392d2e32303420322e3139372d2e35396c31302e3038312d352e39303120362e38352d342e3036352031302e3038312d352e393031632e3636382d2e33383720312e3432362d2e353920322e3139372d2e353973312e3532392e32303420322e3139372e35396c372e38383420342e353961342e353220342e353220302030203120312e35383920312e363136632e3338342e3636352e35393420312e3431382e36303820322e31383776392e333131632e3031332e3737352d2e31383520312e3533382d2e35373220322e32303861342e323520342e32352030203020312d312e36323520312e3539356c2d372e38383420342e373231632d2e3636382e3338372d312e3432362e35392d322e3139372e3539732d312e3532392d2e3230342d322e3139372d2e35396c2d372e3838342d342e353961342e353220342e35322030203020312d312e3538392d312e363136632d2e3338352d2e3636352d2e3539342d312e3431382d2e3630382d322e313837762d362e3033326c2d362e383520342e30363576362e303332632d2e3031332e3737352e31383520312e3533382e35373220322e32303861342e323520342e323520302030203020312e36323520312e3539356c31342e38363420382e363535632e3636382e33383720312e3432362e353920322e3139372e353973312e3532392d2e32303420322e3139372d2e35396c31342e3836342d382e363535632e3635372d2e33393420312e3230342d2e393520312e3538392d312e363136732e3539342d312e3431382e3630392d322e3138375635352e353338632e3031332d2e3737352d2e3138352d312e3533382d2e3537322d322e32303861342e323520342e32352030203020302d312e3632352d312e3539356c2d31342e3939332d382e3738367a222066696c6c3d2223666666222f3e3c646566733e3c6c696e6561724772616469656e742069643d2242222078313d2230222079313d2230222078323d22323730222079323d2232373022206772616469656e74556e6974733d227573657253706163654f6e557365223e3c73746f702073746f702d636f6c6f723d2223306333613061222f3e3c73746f70206f66667365743d2231222073746f702d636f6c6f723d2223383764663834222073746f702d6f7061636974793d222e3939222f3e3c2f6c696e6561724772616469656e743e3c2f646566733e3c7465787420783d2233322e352220793d223233312220666f6e742d73697a653d223237222066696c6c3d2223666666222066696c7465723d2275726c282341292220666f6e742d66616d696c793d22506c7573204a616b617274612053616e732c44656a6156752053616e732c4e6f746f20436f6c6f7220456d6f6a692c4170706c6520436f6c6f7220456d6f6a692c73616e732d73657269662220666f6e742d7765696768743d22626f6c64223e",
  "linkReferences": {},
  "deployedLinkReferences": {}
}