{
  "_format": "hh-sol-artifact-1",
  "contractName": "Domains",
  "sourceName": "contracts/Domain.sol",
  "abi": [
    {
      "inputs": [
        {
          "internalType": "string",
          "name": "_tld",
          "type": "string"
        }
      ],
      "stateMutability": "payable",
      "type": "constructor"
    },
    {
      "inputs": [],
      "name": "AlreadyRegistered",
      "type": "error"
    },
    {
      "inputs": [
        {
          "internalType": "string",
          "name": "name",
          "type": "string"
        }
      ],
      "name": "InvalidName",
      "type": "error"
    },
    {
      "inputs": [],
      "name": "NotEnoughFunds",
      "type": "error"
    },
    {
      "inputs": [],
      "name": "Unauthorized",
      "type": "error"
    },
    {
      "anonymous": false,
      "inputs": [
        {
          "indexed": true,
          "internalType": "address",
          "name": "owner",
          "type": "address"
        },
        {
          "indexed": true,
          "internalType": "address",
          "name": "approved",
          "type": "address"
        },
        {
          "indexed": true,
          "internalType": "uint256",
          "name": "tokenId",
          "type": "uint256"
        }
      ],
      "name": "Approval",
      "type": "event"
    },
    {
      "anonymous": false,
      "inputs": [
        {
          "indexed": true,
          "internalType": "address",
          "name": "owner",
          "type": "address"
        },
        {
          "indexed": true,
          "internalType": "address",
          "name": "operator",
          "type": "address"
        },
        {
          "indexed": false,
          "internalType": "bool",
          "name": "approved",
          "type": "bool"
        }
      ],
      "name": "ApprovalForAll",
      "type": "event"
    },
    {
      "anonymous": false,
      "inputs": [
        {
          "indexed": true,
          "internalType": "address",
          "name": "from",
          "type": "address"
        },
        {
          "indexed": true,
          "internalType": "address",
          "name": "to",
          "type": "address"
        },
        {
          "indexed": true,
          "internalType": "uint256",
          "name": "tokenId",
          "type": "uint256"
        }
      ],
      "name": "Transfer",
      "type": "event"
    },
    {
      "inputs": [
        {
          "internalType": "address",
          "name": "to",
          "type": "address"
        },
        {
          "internalType": "uint256",
          "name": "tokenId",
          "type": "uint256"
        }
      ],
      "name": "approve",
      "outputs": [],
      "stateMutability": "nonpayable",
      "type": "function"
    },
    {
      "inputs": [
        {
          "internalType": "address",
          "name": "owner",
          "type": "address"
        }
      ],
      "name": "balanceOf",
      "outputs": [
        {
          "internalType": "uint256",
          "name": "",
          "type": "uint256"
        }
      ],
      "stateMutability": "view",
      "type": "function"
    },
    {
      "inputs": [
        {
          "internalType": "string",
          "name": "",
          "type": "string"
        }
      ],
      "name": "domains",
      "outputs": [
        {
          "internalType": "address",
          "name": "",
          "type": "address"
        }
      ],
      "stateMutability": "view",
      "type": "function"
    },
    {
      "inputs": [
        {
          "internalType": "string",
          "name": "name",
          "type": "string"
        }
      ],
      "name": "getAddress",
      "outputs": [
        {
          "internalType": "address",
          "name": "",
          "type": "address"
        }
      ],
      "stateMutability": "view",
      "type": "function"
    },
    {
      "inputs": [],
      "name": "getAllNames",
      "outputs": [
        {
          "internalType": "string[]",
          "name": "",
          "type": "string[]"
        }
      ],
      "stateMutability": "view",
      "type": "function"
    },
    {
      "inputs": [
        {
          "internalType": "uint256",
          "name": "tokenId",
          "type": "uint256"
        }
      ],
      "name": "getApproved",
      "outputs": [
        {
          "internalType": "address",
          "name": "",
          "type": "address"
        }
      ],
      "stateMutability": "view",
      "type": "function"
    },
    {
      "inputs": [
        {
          "internalType": "string",
          "name": "name",
          "type": "string"
        },
        {
          "internalType": "string",
          "name": "recordName",
          "type": "string"
        }
      ],
      "name": "getRecord",
      "outputs": [
        {
          "internalType": "string",
          "name": "",
          "type": "string"
        }
      ],
      "stateMutability": "view",
      "type": "function"
    },
    {
      "inputs": [
        {
          "internalType": "address",
          "name": "owner",
          "type": "address"
        },
        {
          "internalType": "address",
          "name": "operator",
          "type": "address"
        }
      ],
      "name": "isApprovedForAll",
      "outputs": [
        {
          "internalType": "bool",
          "name": "",
          "type": "bool"
        }
      ],
      "stateMutability": "view",
      "type": "function"
    },
    {
      "inputs": [],
      "name": "isOwner",
      "outputs": [
        {
          "internalType": "bool",
          "name": "",
          "type": "bool"
        }
      ],
      "stateMutability": "view",
      "type": "function"
    },
    {
      "inputs": [],
      "name": "name",
      "outputs": [
        {
          "internalType": "string",
          "name": "",
          "type": "string"
        }
      ],
      "stateMutability": "view",
      "type": "function"
    },
    {
      "inputs": [
        {
          "internalType": "uint256",
          "name": "",
          "type": "uint256"
        }
      ],
      "name": "names",
      "outputs": [
        {
          "internalType": "string",
          "name": "",
          "type": "string"
        }
      ],
      "stateMutability": "view",
      "type": "function"
    },
    {
      "inputs": [],
      "name": "owner",
      "outputs": [
        {
          "internalType": "address payable",
          "name": "",
          "type": "address"
        }
      ],
      "stateMutability": "view",
      "type": "function"
    },
    {
      "inputs": [
        {
          "internalType": "uint256",
          "name": "tokenId",
          "type": "uint256"
        }
      ],
      "name": "ownerOf",
      "outputs": [
        {
          "internalType": "address",
          "name": "",
          "type": "address"
        }
      ],
      "stateMutability": "view",
      "type": "function"
    },
    {
      "inputs": [
        {
          "internalType": "string",
          "name": "name",
          "type": "string"
        }
      ],
      "name": "price",
      "outputs": [
        {
          "internalType": "uint256",
          "name": "",
          "type": "uint256"
        }
      ],
      "stateMutability": "pure",
      "type": "function"
    },
    {
      "inputs": [
        {
          "internalType": "string",
          "name": "",
          "type": "string"
        },
        {
          "internalType": "string",
          "name": "",
          "type": "string"
        }
      ],
      "name": "records",
      "outputs": [
        {
          "internalType": "string",
          "name": "",
          "type": "string"
        }
      ],
      "stateMutability": "view",
      "type": "function"
    },
    {
      "inputs": [
        {
          "internalType": "string",
          "name": "name",
          "type": "string"
        }
      ],
      "name": "register",
      "outputs": [],
      "stateMutability": "payable",
      "type": "function"
    },
    {
      "inputs": [
        {
          "internalType": "address",
          "name": "from",
          "type": "address"
        },
        {
          "internalType": "address",
          "name": "to",
          "type": "address"
        },
        {
          "internalType": "uint256",
          "name": "tokenId",
          "type": "uint256"
        }
      ],
      "name": "safeTransferFrom",
      "outputs": [],
      "stateMutability": "nonpayable",
      "type": "function"
    },
    {
      "inputs": [
        {
          "internalType": "address",
          "name": "from",
          "type": "address"
        },
        {
          "internalType": "address",
          "name": "to",
          "type": "address"
        },
        {
          "internalType": "uint256",
          "name": "tokenId",
          "type": "uint256"
        },
        {
          "internalType": "bytes",
          "name": "_data",
          "type": "bytes"
        }
      ],
      "name": "safeTransferFrom",
      "outputs": [],
      "stateMutability": "nonpayable",
      "type": "function"
    },
    {
      "inputs": [
        {
          "internalType": "address",
          "name": "operator",
          "type": "address"
        },
        {
          "internalType": "bool",
          "name": "approved",
          "type": "bool"
        }
      ],
      "name": "setApprovalForAll",
      "outputs": [],
      "stateMutability": "nonpayable",
      "type": "function"
    },
    {
      "inputs": [
        {
          "internalType": "string",
          "name": "name",
          "type": "string"
        },
        {
          "internalType": "string",
          "name": "recordName",
          "type": "string"
        },
        {
          "internalType": "string",
          "name": "record",
          "type": "string"
        }
      ],
      "name": "setRecord",
      "outputs": [],
      "stateMutability": "nonpayable",
      "type": "function"
    },
    {
      "inputs": [
        {
          "internalType": "bytes4",
          "name": "interfaceId",
          "type": "bytes4"
        }
      ],
      "name": "supportsInterface",
      "outputs": [
        {
          "internalType": "bool",
          "name": "",
          "type": "bool"
        }
      ],
      "stateMutability": "view",
      "type": "function"
    },
    {
      "inputs": [],
      "name": "symbol",
      "outputs": [
        {
          "internalType": "string",
          "name": "",
          "type": "string"
        }
      ],
      "stateMutability": "view",
      "type": "function"
    },
    {
      "inputs": [],
      "name": "tld",
      "outputs": [
        {
          "internalType": "string",
          "name": "",
          "type": "string"
        }
      ],
      "stateMutability": "view",
      "type": "function"
    },
    {
      "inputs": [
        {
          "internalType": "uint256",
          "name": "tokenId",
          "type": "uint256"
        }
      ],
      "name": "tokenURI",
      "outputs": [
        {
          "internalType": "string",
          "name": "",
          "type": "string"
        }
      ],
      "stateMutability": "view",
      "type": "function"
    },
    {
      "inputs": [
        {
          "internalType": "address",
          "name": "from",
          "type": "address"
        },
        {
          "internalType": "address",
          "name": "to",
          "type": "address"
        },
        {
          "internalType": "uint256",
          "name": "tokenId",
          "type": "uint256"
        }
      ],
      "name": "transferFrom",
      "outputs": [],
      "stateMutability": "nonpayable",
      "type": "function"
    },
    {
      "inputs": [
        {
          "internalType": "string",
          "name": "name",
          "type": "string"
        }
      ],
      "name": "valid",
      "outputs": [
        {
          "internalType": "bool",
          "name": "",
          "type": "bool"
        }
      ],
      "stateMutability": "pure",
      "type": "function"
    },
    {
      "inputs": [],
      "name": "withdraw",
      "outputs": [],
      "stateMutability": "nonpayable",
      "type": "function"
    }
  ],
  "bytecode": "0x6080604052604051806108a0016040528061086b81526020016200561861086b9139600a908051906020019062000038929190620002c8565b506040518060400160405280600d81526020017f3c2f746578743e3c2f7376673e00000000000000000000000000000000000000815250600b908051906020019062000086929190620002c8565b5060405162005e8338038062005e838339818101604052810190620000ac919062000515565b6040518060400160405280601681526020017f446f706520476f6174204e616d652053657276696365000000000000000000008152506040518060400160405280600481526020017f44474e5300000000000000000000000000000000000000000000000000000000815250816000908051906020019062000130929190620002c8565b50806001908051906020019062000149929190620002c8565b50505033600960006101000a81548173ffffffffffffffffffffffffffffffffffffffff021916908373ffffffffffffffffffffffffffffffffffffffff1602179055508060089080519060200190620001a5929190620002c8565b50620001f26040518060400160405280601881526020017f2573206e616d652073657276696365206465706c6f796564000000000000000081525082620001f960201b62001cc81760201c565b5062000663565b6200029b828260405160240162000212929190620005c3565b6040516020818303038152906040527f4b5c4277000000000000000000000000000000000000000000000000000000007bffffffffffffffffffffffffffffffffffffffffffffffffffffffff19166020820180517bffffffffffffffffffffffffffffffffffffffffffffffffffffffff83818316178352505050506200029f60201b60201c565b5050565b60008151905060006a636f6e736f6c652e6c6f679050602083016000808483855afa5050505050565b828054620002d6906200062d565b90600052602060002090601f016020900481019282620002fa576000855562000346565b82601f106200031557805160ff191683800117855562000346565b8280016001018555821562000346579182015b828111156200034557825182559160200191906001019062000328565b5b50905062000355919062000359565b5090565b5b80821115620003745760008160009055506001016200035a565b5090565b6000604051905090565b600080fd5b600080fd5b600080fd5b600080fd5b6000601f19601f8301169050919050565b7f4e487b7100000000000000000000000000000000000000000000000000000000600052604160045260246000fd5b620003e18262000396565b810181811067ffffffffffffffff82111715620004035762000402620003a7565b5b80604052505050565b60006200041862000378565b9050620004268282620003d6565b919050565b600067ffffffffffffffff821115620004495762000448620003a7565b5b620004548262000396565b9050602081019050919050565b60005b838110156200048157808201518184015260208101905062000464565b8381111562000491576000848401525b50505050565b6000620004ae620004a8846200042b565b6200040c565b905082815260208101848484011115620004cd57620004cc62000391565b5b620004da84828562000461565b509392505050565b600082601f830112620004fa57620004f96200038c565b5b81516200050c84826020860162000497565b91505092915050565b6000602082840312156200052e576200052d62000382565b5b600082015167ffffffffffffffff8111156200054f576200054e62000387565b5b6200055d84828501620004e2565b91505092915050565b600081519050919050565b600082825260208201905092915050565b60006200058f8262000566565b6200059b818562000571565b9350620005ad81856020860162000461565b620005b88162000396565b840191505092915050565b60006040820190508181036000830152620005df818562000582565b90508181036020830152620005f5818462000582565b90509392505050565b7f4e487b7100000000000000000000000000000000000000000000000000000000600052602260045260246000fd5b600060028204905060018216806200064657607f821691505b602082108114156200065d576200065c620005fe565b5b50919050565b614fa580620006736000396000f3fe60806040526004361061019c5760003560e01c80637d7c963b116100ec578063b88d4fde1161008a578063e985e9c511610064578063e985e9c514610624578063f2c298be14610661578063fb825e5f1461067d578063fe2c6198146106a85761019c565b8063b88d4fde14610581578063bf40fac1146105aa578063c87b56dd146105e75761019c565b80638f32d59b116100c65780638f32d59b146104c557806395d89b41146104f05780639791c0971461051b578063a22cb465146105585761019c565b80637d7c963b146104205780638a53ddb91461045d5780638da5cb5b1461049a5761019c565b80632d551432116101595780634622ab03116101335780634622ab03146103405780636352211e1461037d57806370a08231146103ba578063721c2edb146103f75761019c565b80632d551432146102d55780633ccfd60b1461030057806342842e0e146103175761019c565b806301ffc9a7146101a157806306fdde03146101de578063081812fc14610209578063095ea7b31461024657806323b872dd1461026f5780632644923514610298575b600080fd5b3480156101ad57600080fd5b506101c860048036038101906101c39190613249565b6106e5565b6040516101d59190613291565b60405180910390f35b3480156101ea57600080fd5b506101f36107c7565b6040516102009190613345565b60405180910390f35b34801561021557600080fd5b50610230600480360381019061022b919061339d565b610859565b60405161023d919061340b565b60405180910390f35b34801561025257600080fd5b5061026d60048036038101906102689190613452565b6108de565b005b34801561027b57600080fd5b5061029660048036038101906102919190613492565b6109f6565b005b3480156102a457600080fd5b506102bf60048036038101906102ba919061361a565b610a56565b6040516102cc919061340b565b60405180910390f35b3480156102e157600080fd5b506102ea610a9f565b6040516102f79190613345565b60405180910390f35b34801561030c57600080fd5b50610315610b2d565b005b34801561032357600080fd5b5061033e60048036038101906103399190613492565b610bf3565b005b34801561034c57600080fd5b506103676004803603810190610362919061339d565b610c13565b6040516103749190613345565b60405180910390f35b34801561038957600080fd5b506103a4600480360381019061039f919061339d565b610cb3565b6040516103b1919061340b565b60405180910390f35b3480156103c657600080fd5b506103e160048036038101906103dc9190613663565b610d65565b6040516103ee919061369f565b60405180910390f35b34801561040357600080fd5b5061041e6004803603810190610419919061371a565b610e1d565b005b34801561042c57600080fd5b50610447600480360381019061044291906137ce565b610f18565b6040516104549190613345565b60405180910390f35b34801561046957600080fd5b50610484600480360381019061047f9190613846565b610ff1565b6040516104919190613345565b60405180910390f35b3480156104a657600080fd5b506104af6110c4565b6040516104bc91906138e8565b60405180910390f35b3480156104d157600080fd5b506104da6110ea565b6040516104e79190613291565b60405180910390f35b3480156104fc57600080fd5b50610505611142565b6040516105129190613345565b60405180910390f35b34801561052757600080fd5b50610542600480360381019061053d9190613903565b6111d4565b60405161054f9190613291565b60405180910390f35b34801561056457600080fd5b5061057f600480360381019061057a919061397c565b611288565b005b34801561058d57600080fd5b506105a860048036038101906105a39190613a5d565b61129e565b005b3480156105b657600080fd5b506105d160048036038101906105cc9190613903565b611300565b6040516105de919061340b565b60405180910390f35b3480156105f357600080fd5b5061060e6004803603810190610609919061339d565b61134b565b60405161061b9190613345565b60405180910390f35b34801561063057600080fd5b5061064b60048036038101906106469190613ae0565b61149d565b6040516106589190613291565b60405180910390f35b61067b60048036038101906106769190613903565b611531565b005b34801561068957600080fd5b50610692611a44565b60405161069f9190613c2c565b60405180910390f35b3480156106b457600080fd5b506106cf60048036038101906106ca9190613903565b611c22565b6040516106dc919061369f565b60405180910390f35b60007f80ac58cd000000000000000000000000000000000000000000000000000000007bffffffffffffffffffffffffffffffffffffffffffffffffffffffff1916827bffffffffffffffffffffffffffffffffffffffffffffffffffffffff191614806107b057507f5b5e139f000000000000000000000000000000000000000000000000000000007bffffffffffffffffffffffffffffffffffffffffffffffffffffffff1916827bffffffffffffffffffffffffffffffffffffffffffffffffffffffff1916145b806107c057506107bf82611d64565b5b9050919050565b6060600080546107d690613c7d565b80601f016020809104026020016040519081016040528092919081815260200182805461080290613c7d565b801561084f5780601f106108245761010080835404028352916020019161084f565b820191906000526020600020905b81548152906001019060200180831161083257829003601f168201915b5050505050905090565b600061086482611dce565b6108a3576040517f08c379a000000000000000000000000000000000000000000000000000000000815260040161089a90613d21565b60405180910390fd5b6004600083815260200190815260200160002060009054906101000a900473ffffffffffffffffffffffffffffffffffffffff169050919050565b60006108e982610cb3565b90508073ffffffffffffffffffffffffffffffffffffffff168373ffffffffffffffffffffffffffffffffffffffff16141561095a576040517f08c379a000000000000000000000000000000000000000000000000000000000815260040161095190613db3565b60405180910390fd5b8073ffffffffffffffffffffffffffffffffffffffff16610979611e3a565b73ffffffffffffffffffffffffffffffffffffffff1614806109a857506109a7816109a2611e3a565b61149d565b5b6109e7576040517f08c379a00000000000000000000000000000000000000000000000000000000081526004016109de90613e45565b60405180910390fd5b6109f18383611e42565b505050565b610a07610a01611e3a565b82611efb565b610a46576040517f08c379a0000000000000000000000000000000000000000000000000000000008152600401610a3d90613ed7565b60405180910390fd5b610a51838383611fd9565b505050565b600c818051602081018201805184825260208301602085012081835280955050505050506000915054906101000a900473ffffffffffffffffffffffffffffffffffffffff1681565b60088054610aac90613c7d565b80601f0160208091040260200160405190810160405280929190818152602001828054610ad890613c7d565b8015610b255780601f10610afa57610100808354040283529160200191610b25565b820191906000526020600020905b815481529060010190602001808311610b0857829003601f168201915b505050505081565b610b356110ea565b610b3e57600080fd5b600047905060003373ffffffffffffffffffffffffffffffffffffffff1682604051610b6990613f28565b60006040518083038185875af1925050503d8060008114610ba6576040519150601f19603f3d011682016040523d82523d6000602084013e610bab565b606091505b5050905080610bef576040517f08c379a0000000000000000000000000000000000000000000000000000000008152600401610be690613f89565b60405180910390fd5b5050565b610c0e8383836040518060200160405280600081525061129e565b505050565b600e6020528060005260406000206000915090508054610c3290613c7d565b80601f0160208091040260200160405190810160405280929190818152602001828054610c5e90613c7d565b8015610cab5780601f10610c8057610100808354040283529160200191610cab565b820191906000526020600020905b815481529060010190602001808311610c8e57829003601f168201915b505050505081565b6000806002600084815260200190815260200160002060009054906101000a900473ffffffffffffffffffffffffffffffffffffffff169050600073ffffffffffffffffffffffffffffffffffffffff168173ffffffffffffffffffffffffffffffffffffffff161415610d5c576040517f08c379a0000000000000000000000000000000000000000000000000000000008152600401610d539061401b565b60405180910390fd5b80915050919050565b60008073ffffffffffffffffffffffffffffffffffffffff168273ffffffffffffffffffffffffffffffffffffffff161415610dd6576040517f08c379a0000000000000000000000000000000000000000000000000000000008152600401610dcd906140ad565b60405180910390fd5b600360008373ffffffffffffffffffffffffffffffffffffffff1673ffffffffffffffffffffffffffffffffffffffff168152602001908152602001600020549050919050565b600c8686604051610e2f9291906140fd565b908152602001604051809103902060009054906101000a900473ffffffffffffffffffffffffffffffffffffffff1673ffffffffffffffffffffffffffffffffffffffff163373ffffffffffffffffffffffffffffffffffffffff1614610ec2576040517f82b4290000000000000000000000000000000000000000000000000000000000815260040160405180910390fd5b8181600d8888604051610ed69291906140fd565b90815260200160405180910390208686604051610ef49291906140fd565b90815260200160405180910390209190610f0f9291906130b4565b50505050505050565b600d8280516020810182018051848252602083016020850120818352809550505050505081805160208101820180518482526020830160208501208183528095505050505050600091509150508054610f7090613c7d565b80601f0160208091040260200160405190810160405280929190818152602001828054610f9c90613c7d565b8015610fe95780601f10610fbe57610100808354040283529160200191610fe9565b820191906000526020600020905b815481529060010190602001808311610fcc57829003601f168201915b505050505081565b6060600d85856040516110059291906140fd565b908152602001604051809103902083836040516110239291906140fd565b9081526020016040518091039020805461103c90613c7d565b80601f016020809104026020016040519081016040528092919081815260200182805461106890613c7d565b80156110b55780601f1061108a576101008083540402835291602001916110b5565b820191906000526020600020905b81548152906001019060200180831161109857829003601f168201915b50505050509050949350505050565b600960009054906101000a900473ffffffffffffffffffffffffffffffffffffffff1681565b6000600960009054906101000a900473ffffffffffffffffffffffffffffffffffffffff1673ffffffffffffffffffffffffffffffffffffffff163373ffffffffffffffffffffffffffffffffffffffff1614905090565b60606001805461115190613c7d565b80601f016020809104026020016040519081016040528092919081815260200182805461117d90613c7d565b80156111ca5780601f1061119f576101008083540402835291602001916111ca565b820191906000526020600020905b8154815290600101906020018083116111ad57829003601f168201915b5050505050905090565b6000600361122584848080601f016020809104026020016040519081016040528093929190818152602001838380828437600081840152601f19601f82011690508083019250505050505050612240565b101580156112805750600a61127d84848080601f016020809104026020016040519081016040528093929190818152602001838380828437600081840152601f19601f82011690508083019250505050505050612240565b11155b905092915050565b61129a611293611e3a565b83836123f5565b5050565b6112af6112a9611e3a565b83611efb565b6112ee576040517f08c379a00000000000000000000000000000000000000000000000000000000081526004016112e590613ed7565b60405180910390fd5b6112fa84848484612562565b50505050565b6000600c83836040516113149291906140fd565b908152602001604051809103902060009054906101000a900473ffffffffffffffffffffffffffffffffffffffff16905092915050565b606061135682611dce565b611395576040517f08c379a000000000000000000000000000000000000000000000000000000000815260040161138c90614188565b60405180910390fd5b60006006600084815260200190815260200160002080546113b590613c7d565b80601f01602080910402602001604051908101604052809291908181526020018280546113e190613c7d565b801561142e5780601f106114035761010080835404028352916020019161142e565b820191906000526020600020905b81548152906001019060200180831161141157829003601f168201915b50505050509050600061143f6125be565b9050600081511415611455578192505050611498565b60008251111561148a5780826040516020016114729291906141d9565b60405160208183030381529060405292505050611498565b611493846125d5565b925050505b919050565b6000600560008473ffffffffffffffffffffffffffffffffffffffff1673ffffffffffffffffffffffffffffffffffffffff16815260200190815260200160002060008373ffffffffffffffffffffffffffffffffffffffff1673ffffffffffffffffffffffffffffffffffffffff16815260200190815260200160002060009054906101000a900460ff16905092915050565b600073ffffffffffffffffffffffffffffffffffffffff16600c838360405161155b9291906140fd565b908152602001604051809103902060009054906101000a900473ffffffffffffffffffffffffffffffffffffffff1673ffffffffffffffffffffffffffffffffffffffff16146115d7576040517f3a81d6fc00000000000000000000000000000000000000000000000000000000815260040160405180910390fd5b6115e182826111d4565b6116245781816040517f7f19f48d00000000000000000000000000000000000000000000000000000000815260040161161b92919061422a565b60405180910390fd5b60006116308383611c22565b90508034101561166c576040517f81b5ad6800000000000000000000000000000000000000000000000000000000815260040160405180910390fd5b6000838360086040516020016116849392919061432e565b60405160208183030381529060405290506000600a82600b6040516020016116ae9392919061435f565b604051602081830303815290604052905060006116cb600761267c565b9050600061171c87878080601f016020809104026020016040519081016040528093929190818152602001838380828437600081840152601f19601f82011690508083019250505050505050612240565b905060006117298261268a565b905061181d604051806060016040528060318152602001614ec66031913989898080601f016020809104026020016040519081016040528093929190818152602001838380828437600081840152601f19601f820116905080830192505050505050506008805461179990613c7d565b80601f01602080910402602001604051908101604052809291908181526020018280546117c590613c7d565b80156118125780601f106117e757610100808354040283529160200191611812565b820191906000526020600020905b8154815290600101906020018083116117f557829003601f168201915b5050505050866127eb565b33600c89896040516118309291906140fd565b908152602001604051809103902060006101000a81548173ffffffffffffffffffffffffffffffffffffffff021916908373ffffffffffffffffffffffffffffffffffffffff1602179055506118bb6040518060400160405280601b81526020017f2573206861732072656769737465726564206120646f6d61696e2100000000008152503361288d565b60006118f1866118ca87612929565b846040516020016118dd9392919061450c565b604051602081830303815290604052612929565b905060008160405160200161190691906145b5565b6040516020818303038152906040529050611938604051806060016040528060398152602001614e8d60399139612ac1565b6119776040518060400160405280600e81526020017f46696e616c20746f6b656e55524900000000000000000000000000000000000081525082611cc8565b611998604051806060016040528060398152602001614ef760399139612ac1565b6119a23386612b5a565b6119ac8582612b78565b33600c8b8b6040516119bf9291906140fd565b908152602001604051809103902060006101000a81548173ffffffffffffffffffffffffffffffffffffffff021916908373ffffffffffffffffffffffffffffffffffffffff1602179055508989600e60008881526020019081526020016000209190611a2d9291906130b4565b50611a386007612bec565b50505050505050505050565b6060611a846040518060400160405280601f81526020017f47657474696e6720616c6c206e616d65732066726f6d20636f6e747261637400815250612ac1565b6000611a90600761267c565b67ffffffffffffffff811115611aa957611aa86134ef565b5b604051908082528060200260200182016040528015611adc57816020015b6060815260200190600190039081611ac75790505b50905060005b611aec600761267c565b811015611c1a57600e60008281526020019081526020016000208054611b1190613c7d565b80601f0160208091040260200160405190810160405280929190818152602001828054611b3d90613c7d565b8015611b8a5780601f10611b5f57610100808354040283529160200191611b8a565b820191906000526020600020905b815481529060010190602001808311611b6d57829003601f168201915b5050505050828281518110611ba257611ba16145d7565b5b6020026020010181905250611c076040518060400160405280601781526020017f4e616d6520666f7220746f6b656e20256420697320257300000000000000000081525082848481518110611bfa57611bf96145d7565b5b6020026020010151612c02565b8080611c1290614635565b915050611ae2565b508091505090565b600080611c7284848080601f016020809104026020016040519081016040528093929190818152602001838380828437600081840152601f19601f82011690508083019250505050505050612240565b905060008111611c8157600080fd5b6003811415611c9b576706f05b59d3b20000915050611cc2565b6004811415611cb557670429d069189e0000915050611cc2565b67016345785d8a00009150505b92915050565b611d608282604051602401611cde92919061467e565b6040516020818303038152906040527f4b5c4277000000000000000000000000000000000000000000000000000000007bffffffffffffffffffffffffffffffffffffffffffffffffffffffff19166020820180517bffffffffffffffffffffffffffffffffffffffffffffffffffffffff8381831617835250505050612ca1565b5050565b60007f01ffc9a7000000000000000000000000000000000000000000000000000000007bffffffffffffffffffffffffffffffffffffffffffffffffffffffff1916827bffffffffffffffffffffffffffffffffffffffffffffffffffffffff1916149050919050565b60008073ffffffffffffffffffffffffffffffffffffffff166002600084815260200190815260200160002060009054906101000a900473ffffffffffffffffffffffffffffffffffffffff1673ffffffffffffffffffffffffffffffffffffffff1614159050919050565b600033905090565b816004600083815260200190815260200160002060006101000a81548173ffffffffffffffffffffffffffffffffffffffff021916908373ffffffffffffffffffffffffffffffffffffffff160217905550808273ffffffffffffffffffffffffffffffffffffffff16611eb583610cb3565b73ffffffffffffffffffffffffffffffffffffffff167f8c5be1e5ebec7d5bd14f71427d1e84f3dd0314c0f7b2291e5b200ac8c7c3b92560405160405180910390a45050565b6000611f0682611dce565b611f45576040517f08c379a0000000000000000000000000000000000000000000000000000000008152600401611f3c90614727565b60405180910390fd5b6000611f5083610cb3565b90508073ffffffffffffffffffffffffffffffffffffffff168473ffffffffffffffffffffffffffffffffffffffff161480611fbf57508373ffffffffffffffffffffffffffffffffffffffff16611fa784610859565b73ffffffffffffffffffffffffffffffffffffffff16145b80611fd05750611fcf818561149d565b5b91505092915050565b8273ffffffffffffffffffffffffffffffffffffffff16611ff982610cb3565b73ffffffffffffffffffffffffffffffffffffffff161461204f576040517f08c379a0000000000000000000000000000000000000000000000000000000008152600401612046906147b9565b60405180910390fd5b600073ffffffffffffffffffffffffffffffffffffffff168273ffffffffffffffffffffffffffffffffffffffff1614156120bf576040517f08c379a00000000000000000000000000000000000000000000000000000000081526004016120b69061484b565b60405180910390fd5b6120ca838383612cca565b6120d5600082611e42565b6001600360008573ffffffffffffffffffffffffffffffffffffffff1673ffffffffffffffffffffffffffffffffffffffff1681526020019081526020016000206000828254612125919061486b565b925050819055506001600360008473ffffffffffffffffffffffffffffffffffffffff1673ffffffffffffffffffffffffffffffffffffffff168152602001908152602001600020600082825461217c919061489f565b92505081905550816002600083815260200190815260200160002060006101000a81548173ffffffffffffffffffffffffffffffffffffffff021916908373ffffffffffffffffffffffffffffffffffffffff160217905550808273ffffffffffffffffffffffffffffffffffffffff168473ffffffffffffffffffffffffffffffffffffffff167fddf252ad1be2c89b69c2b068fc378daa952ba7f163c4a11628f55a4df523b3ef60405160405180910390a461223b838383612ccf565b505050565b60008060008084519050600092505b808210156123ea57600085838151811061226c5761226b6145d7565b5b602001015160f81c60f81b9050608060f81b817effffffffffffffffffffffffffffffffffffffffffffffffffffffffffffff191610156122bb576001836122b4919061489f565b92506123d6565b60e060f81b817effffffffffffffffffffffffffffffffffffffffffffffffffffffffffffff191610156122fd576002836122f6919061489f565b92506123d5565b60f060f81b817effffffffffffffffffffffffffffffffffffffffffffffffffffffffffffff1916101561233f57600383612338919061489f565b92506123d4565b60f8801b817effffffffffffffffffffffffffffffffffffffffffffffffffffffffffffff1916101561238057600483612379919061489f565b92506123d3565b60fc60f81b817effffffffffffffffffffffffffffffffffffffffffffffffffffffffffffff191610156123c2576005836123bb919061489f565b92506123d2565b6006836123cf919061489f565b92505b5b5b5b5b5082806123e290614635565b93505061224f565b829350505050919050565b8173ffffffffffffffffffffffffffffffffffffffff168373ffffffffffffffffffffffffffffffffffffffff161415612464576040517f08c379a000000000000000000000000000000000000000000000000000000000815260040161245b90614941565b60405180910390fd5b80600560008573ffffffffffffffffffffffffffffffffffffffff1673ffffffffffffffffffffffffffffffffffffffff16815260200190815260200160002060008473ffffffffffffffffffffffffffffffffffffffff1673ffffffffffffffffffffffffffffffffffffffff16815260200190815260200160002060006101000a81548160ff0219169083151502179055508173ffffffffffffffffffffffffffffffffffffffff168373ffffffffffffffffffffffffffffffffffffffff167f17307eab39ab6107e8899845ad3d59bd9653f200f220920489ca2b5937696c31836040516125559190613291565b60405180910390a3505050565b61256d848484611fd9565b61257984848484612cd4565b6125b8576040517f08c379a00000000000000000000000000000000000000000000000000000000081526004016125af906149d3565b60405180910390fd5b50505050565b606060405180602001604052806000815250905090565b60606125e082611dce565b61261f576040517f08c379a000000000000000000000000000000000000000000000000000000000815260040161261690614a65565b60405180910390fd5b60006126296125be565b905060008151116126495760405180602001604052806000815250612674565b806126538461268a565b6040516020016126649291906141d9565b6040516020818303038152906040525b915050919050565b600081600001549050919050565b606060008214156126d2576040518060400160405280600181526020017f300000000000000000000000000000000000000000000000000000000000000081525090506127e6565b600082905060005b600082146127045780806126ed90614635565b915050600a826126fd9190614ab4565b91506126da565b60008167ffffffffffffffff8111156127205761271f6134ef565b5b6040519080825280601f01601f1916602001820160405280156127525781602001600182028036833780820191505090505b5090505b600085146127df5760018261276b919061486b565b9150600a8561277a9190614ae5565b6030612786919061489f565b60f81b81838151811061279c5761279b6145d7565b5b60200101907effffffffffffffffffffffffffffffffffffffffffffffffffffffffffffff1916908160001a905350600a856127d89190614ab4565b9450612756565b8093505050505b919050565b612887848484846040516024016128059493929190614b16565b6040516020818303038152906040527f9fd009f5000000000000000000000000000000000000000000000000000000007bffffffffffffffffffffffffffffffffffffffffffffffffffffffff19166020820180517bffffffffffffffffffffffffffffffffffffffffffffffffffffffff8381831617835250505050612ca1565b50505050565b61292582826040516024016128a3929190614b70565b6040516020818303038152906040527f319af333000000000000000000000000000000000000000000000000000000007bffffffffffffffffffffffffffffffffffffffffffffffffffffffff19166020820180517bffffffffffffffffffffffffffffffffffffffffffffffffffffffff8381831617835250505050612ca1565b5050565b606060008251905060008114156129525760405180602001604052806000815250915050612abc565b60006003600283612963919061489f565b61296d9190614ab4565b60046129799190614ba0565b9050600060208261298a919061489f565b67ffffffffffffffff8111156129a3576129a26134ef565b5b6040519080825280601f01601f1916602001820160405280156129d55781602001600182028036833780820191505090505b5090506000604051806060016040528060408152602001614f30604091399050600181016020830160005b86811015612a795760038101905062ffffff818a015116603f8160121c168401518060081b905060ff603f83600c1c1686015116810190508060081b905060ff603f8360061c1686015116810190508060081b905060ff603f831686015116810190508060e01b90508084526004840193505050612a00565b506003860660018114612a935760028114612aa357612aae565b613d3d60f01b6002830352612aae565b603d60f81b60018303525b508484525050819450505050505b919050565b612b5781604051602401612ad59190613345565b6040516020818303038152906040527f41304fac000000000000000000000000000000000000000000000000000000007bffffffffffffffffffffffffffffffffffffffffffffffffffffffff19166020820180517bffffffffffffffffffffffffffffffffffffffffffffffffffffffff8381831617835250505050612ca1565b50565b612b74828260405180602001604052806000815250612e5c565b5050565b612b8182611dce565b612bc0576040517f08c379a0000000000000000000000000000000000000000000000000000000008152600401612bb790614c6c565b60405180910390fd5b80600660008481526020019081526020016000209080519060200190612be792919061313a565b505050565b6001816000016000828254019250508190555050565b612c9c838383604051602401612c1a93929190614c8c565b6040516020818303038152906040527fa3f5c739000000000000000000000000000000000000000000000000000000007bffffffffffffffffffffffffffffffffffffffffffffffffffffffff19166020820180517bffffffffffffffffffffffffffffffffffffffffffffffffffffffff8381831617835250505050612ca1565b505050565b60008151905060006a636f6e736f6c652e6c6f679050602083016000808483855afa5050505050565b505050565b505050565b6000612cf58473ffffffffffffffffffffffffffffffffffffffff16612eb7565b15612e4f578373ffffffffffffffffffffffffffffffffffffffff1663150b7a02612d1e611e3a565b8786866040518563ffffffff1660e01b8152600401612d409493929190614d26565b6020604051808303816000875af1925050508015612d7c57506040513d601f19601f82011682018060405250810190612d799190614d87565b60015b612dff573d8060008114612dac576040519150601f19603f3d011682016040523d82523d6000602084013e612db1565b606091505b50600081511415612df7576040517f08c379a0000000000000000000000000000000000000000000000000000000008152600401612dee906149d3565b60405180910390fd5b805181602001fd5b63150b7a0260e01b7bffffffffffffffffffffffffffffffffffffffffffffffffffffffff1916817bffffffffffffffffffffffffffffffffffffffffffffffffffffffff191614915050612e54565b600190505b949350505050565b612e668383612eda565b612e736000848484612cd4565b612eb2576040517f08c379a0000000000000000000000000000000000000000000000000000000008152600401612ea9906149d3565b60405180910390fd5b505050565b6000808273ffffffffffffffffffffffffffffffffffffffff163b119050919050565b600073ffffffffffffffffffffffffffffffffffffffff168273ffffffffffffffffffffffffffffffffffffffff161415612f4a576040517f08c379a0000000000000000000000000000000000000000000000000000000008152600401612f4190614e00565b60405180910390fd5b612f5381611dce565b15612f93576040517f08c379a0000000000000000000000000000000000000000000000000000000008152600401612f8a90614e6c565b60405180910390fd5b612f9f60008383612cca565b6001600360008473ffffffffffffffffffffffffffffffffffffffff1673ffffffffffffffffffffffffffffffffffffffff1681526020019081526020016000206000828254612fef919061489f565b92505081905550816002600083815260200190815260200160002060006101000a81548173ffffffffffffffffffffffffffffffffffffffff021916908373ffffffffffffffffffffffffffffffffffffffff160217905550808273ffffffffffffffffffffffffffffffffffffffff16600073ffffffffffffffffffffffffffffffffffffffff167fddf252ad1be2c89b69c2b068fc378daa952ba7f163c4a11628f55a4df523b3ef60405160405180910390a46130b060008383612ccf565b5050565b8280546130c090613c7d565b90600052602060002090601f0160209004810192826130e25760008555613129565b82601f106130fb57803560ff1916838001178555613129565b82800160010185558215613129579182015b8281111561312857823582559160200191906001019061310d565b5b50905061313691906131c0565b5090565b82805461314690613c7d565b90600052602060002090601f01602090048101928261316857600085556131af565b82601f1061318157805160ff19168380011785556131af565b828001600101855582156131af579182015b828111156131ae578251825591602001919060010190613193565b5b5090506131bc91906131c0565b5090565b5b808211156131d95760008160009055506001016131c1565b5090565b6000604051905090565b600080fd5b600080fd5b60007fffffffff0000000000000000000000000000000000000000000000000000000082169050919050565b613226816131f1565b811461323157600080fd5b50565b6000813590506132438161321d565b92915050565b60006020828403121561325f5761325e6131e7565b5b600061326d84828501613234565b91505092915050565b60008115159050919050565b61328b81613276565b82525050565b60006020820190506132a66000830184613282565b92915050565b600081519050919050565b600082825260208201905092915050565b60005b838110156132e65780820151818401526020810190506132cb565b838111156132f5576000848401525b50505050565b6000601f19601f8301169050919050565b6000613317826132ac565b61332181856132b7565b93506133318185602086016132c8565b61333a816132fb565b840191505092915050565b6000602082019050818103600083015261335f818461330c565b905092915050565b6000819050919050565b61337a81613367565b811461338557600080fd5b50565b60008135905061339781613371565b92915050565b6000602082840312156133b3576133b26131e7565b5b60006133c184828501613388565b91505092915050565b600073ffffffffffffffffffffffffffffffffffffffff82169050919050565b60006133f5826133ca565b9050919050565b613405816133ea565b82525050565b600060208201905061342060008301846133fc565b92915050565b61342f816133ea565b811461343a57600080fd5b50565b60008135905061344c81613426565b92915050565b60008060408385031215613469576134686131e7565b5b60006134778582860161343d565b925050602061348885828601613388565b9150509250929050565b6000806000606084860312156134ab576134aa6131e7565b5b60006134b98682870161343d565b93505060206134ca8682870161343d565b92505060406134db86828701613388565b9150509250925092565b600080fd5b600080fd5b7f4e487b7100000000000000000000000000000000000000000000000000000000600052604160045260246000fd5b613527826132fb565b810181811067ffffffffffffffff82111715613546576135456134ef565b5b80604052505050565b60006135596131dd565b9050613565828261351e565b919050565b600067ffffffffffffffff821115613585576135846134ef565b5b61358e826132fb565b9050602081019050919050565b82818337600083830152505050565b60006135bd6135b88461356a565b61354f565b9050828152602081018484840111156135d9576135d86134ea565b5b6135e484828561359b565b509392505050565b600082601f830112613601576136006134e5565b5b81356136118482602086016135aa565b91505092915050565b6000602082840312156136305761362f6131e7565b5b600082013567ffffffffffffffff81111561364e5761364d6131ec565b5b61365a848285016135ec565b91505092915050565b600060208284031215613679576136786131e7565b5b60006136878482850161343d565b91505092915050565b61369981613367565b82525050565b60006020820190506136b46000830184613690565b92915050565b600080fd5b600080fd5b60008083601f8401126136da576136d96134e5565b5b8235905067ffffffffffffffff8111156136f7576136f66136ba565b5b602083019150836001820283011115613713576137126136bf565b5b9250929050565b60008060008060008060608789031215613737576137366131e7565b5b600087013567ffffffffffffffff811115613755576137546131ec565b5b61376189828a016136c4565b9650965050602087013567ffffffffffffffff811115613784576137836131ec565b5b61379089828a016136c4565b9450945050604087013567ffffffffffffffff8111156137b3576137b26131ec565b5b6137bf89828a016136c4565b92509250509295509295509295565b600080604083850312156137e5576137e46131e7565b5b600083013567ffffffffffffffff811115613803576138026131ec565b5b61380f858286016135ec565b925050602083013567ffffffffffffffff8111156138305761382f6131ec565b5b61383c858286016135ec565b9150509250929050565b600080600080604085870312156138605761385f6131e7565b5b600085013567ffffffffffffffff81111561387e5761387d6131ec565b5b61388a878288016136c4565b9450945050602085013567ffffffffffffffff8111156138ad576138ac6131ec565b5b6138b9878288016136c4565b925092505092959194509250565b60006138d2826133ca565b9050919050565b6138e2816138c7565b82525050565b60006020820190506138fd60008301846138d9565b92915050565b6000806020838503121561391a576139196131e7565b5b600083013567ffffffffffffffff811115613938576139376131ec565b5b613944858286016136c4565b92509250509250929050565b61395981613276565b811461396457600080fd5b50565b60008135905061397681613950565b92915050565b60008060408385031215613993576139926131e7565b5b60006139a18582860161343d565b92505060206139b285828601613967565b9150509250929050565b600067ffffffffffffffff8211156139d7576139d66134ef565b5b6139e0826132fb565b9050602081019050919050565b6000613a006139fb846139bc565b61354f565b905082815260208101848484011115613a1c57613a1b6134ea565b5b613a2784828561359b565b509392505050565b600082601f830112613a4457613a436134e5565b5b8135613a548482602086016139ed565b91505092915050565b60008060008060808587031215613a7757613a766131e7565b5b6000613a858782880161343d565b9450506020613a968782880161343d565b9350506040613aa787828801613388565b925050606085013567ffffffffffffffff811115613ac857613ac76131ec565b5b613ad487828801613a2f565b91505092959194509250565b60008060408385031215613af757613af66131e7565b5b6000613b058582860161343d565b9250506020613b168582860161343d565b9150509250929050565b600081519050919050565b600082825260208201905092915050565b6000819050602082019050919050565b600082825260208201905092915050565b6000613b68826132ac565b613b728185613b4c565b9350613b828185602086016132c8565b613b8b816132fb565b840191505092915050565b6000613ba28383613b5d565b905092915050565b6000602082019050919050565b6000613bc282613b20565b613bcc8185613b2b565b935083602082028501613bde85613b3c565b8060005b85811015613c1a5784840389528151613bfb8582613b96565b9450613c0683613baa565b925060208a01995050600181019050613be2565b50829750879550505050505092915050565b60006020820190508181036000830152613c468184613bb7565b905092915050565b7f4e487b7100000000000000000000000000000000000000000000000000000000600052602260045260246000fd5b60006002820490506001821680613c9557607f821691505b60208210811415613ca957613ca8613c4e565b5b50919050565b7f4552433732313a20617070726f76656420717565727920666f72206e6f6e657860008201527f697374656e7420746f6b656e0000000000000000000000000000000000000000602082015250565b6000613d0b602c836132b7565b9150613d1682613caf565b604082019050919050565b60006020820190508181036000830152613d3a81613cfe565b9050919050565b7f4552433732313a20617070726f76616c20746f2063757272656e74206f776e6560008201527f7200000000000000000000000000000000000000000000000000000000000000602082015250565b6000613d9d6021836132b7565b9150613da882613d41565b604082019050919050565b60006020820190508181036000830152613dcc81613d90565b9050919050565b7f4552433732313a20617070726f76652063616c6c6572206973206e6f74206f7760008201527f6e6572206e6f7220617070726f76656420666f7220616c6c0000000000000000602082015250565b6000613e2f6038836132b7565b9150613e3a82613dd3565b604082019050919050565b60006020820190508181036000830152613e5e81613e22565b9050919050565b7f4552433732313a207472616e736665722063616c6c6572206973206e6f74206f60008201527f776e6572206e6f7220617070726f766564000000000000000000000000000000602082015250565b6000613ec16031836132b7565b9150613ecc82613e65565b604082019050919050565b60006020820190508181036000830152613ef081613eb4565b9050919050565b600081905092915050565b50565b6000613f12600083613ef7565b9150613f1d82613f02565b600082019050919050565b6000613f3382613f05565b9150819050919050565b7f4661696c656420746f207769746864726177204d617469630000000000000000600082015250565b6000613f736018836132b7565b9150613f7e82613f3d565b602082019050919050565b60006020820190508181036000830152613fa281613f66565b9050919050565b7f4552433732313a206f776e657220717565727920666f72206e6f6e657869737460008201527f656e7420746f6b656e0000000000000000000000000000000000000000000000602082015250565b60006140056029836132b7565b915061401082613fa9565b604082019050919050565b6000602082019050818103600083015261403481613ff8565b9050919050565b7f4552433732313a2062616c616e636520717565727920666f7220746865207a6560008201527f726f206164647265737300000000000000000000000000000000000000000000602082015250565b6000614097602a836132b7565b91506140a28261403b565b604082019050919050565b600060208201905081810360008301526140c68161408a565b9050919050565b600081905092915050565b60006140e483856140cd565b93506140f183858461359b565b82840190509392505050565b600061410a8284866140d8565b91508190509392505050565b7f45524337323155524953746f726167653a2055524920717565727920666f722060008201527f6e6f6e6578697374656e7420746f6b656e000000000000000000000000000000602082015250565b60006141726031836132b7565b915061417d82614116565b604082019050919050565b600060208201905081810360008301526141a181614165565b9050919050565b60006141b3826132ac565b6141bd81856140cd565b93506141cd8185602086016132c8565b80840191505092915050565b60006141e582856141a8565b91506141f182846141a8565b91508190509392505050565b600061420983856132b7565b935061421683858461359b565b61421f836132fb565b840190509392505050565b600060208201905081810360008301526142458184866141fd565b90509392505050565b7f2e00000000000000000000000000000000000000000000000000000000000000600082015250565b60006142846001836140cd565b915061428f8261424e565b600182019050919050565b60008190508160005260206000209050919050565b600081546142bc81613c7d565b6142c681866140cd565b945060018216600081146142e157600181146142f257614325565b60ff19831686528186019350614325565b6142fb8561429a565b60005b8381101561431d578154818901526001820191506020810190506142fe565b838801955050505b50505092915050565b600061433b8285876140d8565b915061434682614277565b915061435282846142af565b9150819050949350505050565b600061436b82866142af565b915061437782856141a8565b915061438382846142af565b9150819050949350505050565b7f7b226e616d65223a202200000000000000000000000000000000000000000000600082015250565b60006143c6600a836140cd565b91506143d182614390565b600a82019050919050565b7f222c20226465736372697074696f6e223a20224120646f6d61696e206f6e207460008201527f686520446f706520476f6174206e616d652073657276696365222c2022696d6160208201527f6765223a2022646174613a696d6167652f7376672b786d6c3b6261736536342c604082015250565b600061445e6060836140cd565b9150614469826143dc565b606082019050919050565b7f222c226c656e677468223a220000000000000000000000000000000000000000600082015250565b60006144aa600c836140cd565b91506144b582614474565b600c82019050919050565b7f227d000000000000000000000000000000000000000000000000000000000000600082015250565b60006144f66002836140cd565b9150614501826144c0565b600282019050919050565b6000614517826143b9565b915061452382866141a8565b915061452e82614451565b915061453a82856141a8565b91506145458261449d565b915061455182846141a8565b915061455c826144e9565b9150819050949350505050565b7f646174613a6170706c69636174696f6e2f6a736f6e3b6261736536342c000000600082015250565b600061459f601d836140cd565b91506145aa82614569565b601d82019050919050565b60006145c082614592565b91506145cc82846141a8565b915081905092915050565b7f4e487b7100000000000000000000000000000000000000000000000000000000600052603260045260246000fd5b7f4e487b7100000000000000000000000000000000000000000000000000000000600052601160045260246000fd5b600061464082613367565b91507fffffffffffffffffffffffffffffffffffffffffffffffffffffffffffffffff82141561467357614672614606565b5b600182019050919050565b60006040820190508181036000830152614698818561330c565b905081810360208301526146ac818461330c565b90509392505050565b7f4552433732313a206f70657261746f7220717565727920666f72206e6f6e657860008201527f697374656e7420746f6b656e0000000000000000000000000000000000000000602082015250565b6000614711602c836132b7565b915061471c826146b5565b604082019050919050565b6000602082019050818103600083015261474081614704565b9050919050565b7f4552433732313a207472616e736665722066726f6d20696e636f72726563742060008201527f6f776e6572000000000000000000000000000000000000000000000000000000602082015250565b60006147a36025836132b7565b91506147ae82614747565b604082019050919050565b600060208201905081810360008301526147d281614796565b9050919050565b7f4552433732313a207472616e7366657220746f20746865207a65726f2061646460008201527f7265737300000000000000000000000000000000000000000000000000000000602082015250565b60006148356024836132b7565b9150614840826147d9565b604082019050919050565b6000602082019050818103600083015261486481614828565b9050919050565b600061487682613367565b915061488183613367565b92508282101561489457614893614606565b5b828203905092915050565b60006148aa82613367565b91506148b583613367565b9250827fffffffffffffffffffffffffffffffffffffffffffffffffffffffffffffffff038211156148ea576148e9614606565b5b828201905092915050565b7f4552433732313a20617070726f766520746f2063616c6c657200000000000000600082015250565b600061492b6019836132b7565b9150614936826148f5565b602082019050919050565b6000602082019050818103600083015261495a8161491e565b9050919050565b7f4552433732313a207472616e7366657220746f206e6f6e20455243373231526560008201527f63656976657220696d706c656d656e7465720000000000000000000000000000602082015250565b60006149bd6032836132b7565b91506149c882614961565b604082019050919050565b600060208201905081810360008301526149ec816149b0565b9050919050565b7f4552433732314d657461646174613a2055524920717565727920666f72206e6f60008201527f6e6578697374656e7420746f6b656e0000000000000000000000000000000000602082015250565b6000614a4f602f836132b7565b9150614a5a826149f3565b604082019050919050565b60006020820190508181036000830152614a7e81614a42565b9050919050565b7f4e487b7100000000000000000000000000000000000000000000000000000000600052601260045260246000fd5b6000614abf82613367565b9150614aca83613367565b925082614ada57614ad9614a85565b5b828204905092915050565b6000614af082613367565b9150614afb83613367565b925082614b0b57614b0a614a85565b5b828206905092915050565b60006080820190508181036000830152614b30818761330c565b90508181036020830152614b44818661330c565b90508181036040830152614b58818561330c565b9050614b676060830184613690565b95945050505050565b60006040820190508181036000830152614b8a818561330c565b9050614b9960208301846133fc565b9392505050565b6000614bab82613367565b9150614bb683613367565b9250817fffffffffffffffffffffffffffffffffffffffffffffffffffffffffffffffff0483118215151615614bef57614bee614606565b5b828202905092915050565b7f45524337323155524953746f726167653a2055524920736574206f66206e6f6e60008201527f6578697374656e7420746f6b656e000000000000000000000000000000000000602082015250565b6000614c56602e836132b7565b9150614c6182614bfa565b604082019050919050565b60006020820190508181036000830152614c8581614c49565b9050919050565b60006060820190508181036000830152614ca6818661330c565b9050614cb56020830185613690565b8181036040830152614cc7818461330c565b9050949350505050565b600081519050919050565b600082825260208201905092915050565b6000614cf882614cd1565b614d028185614cdc565b9350614d128185602086016132c8565b614d1b816132fb565b840191505092915050565b6000608082019050614d3b60008301876133fc565b614d4860208301866133fc565b614d556040830185613690565b8181036060830152614d678184614ced565b905095945050505050565b600081519050614d818161321d565b92915050565b600060208284031215614d9d57614d9c6131e7565b5b6000614dab84828501614d72565b91505092915050565b7f4552433732313a206d696e7420746f20746865207a65726f2061646472657373600082015250565b6000614dea6020836132b7565b9150614df582614db4565b602082019050919050565b60006020820190508181036000830152614e1981614ddd565b9050919050565b7f4552433732313a20746f6b656e20616c7265616479206d696e74656400000000600082015250565b6000614e56601c836132b7565b9150614e6182614e20565b602082019050919050565b60006020820190508181036000830152614e8581614e49565b905091905056fe0a2d2d2d2d2d2d2d2d2d2d2d2d2d2d2d2d2d2d2d2d2d2d2d2d2d2d2d2d2d2d2d2d2d2d2d2d2d2d2d2d2d2d2d2d2d2d2d2d2d2d2d2d2d2d2d2d5265676973746572696e672025732e2573206f6e2074686520636f6e7472616374207769746820746f6b656e49442025642d2d2d2d2d2d2d2d2d2d2d2d2d2d2d2d2d2d2d2d2d2d2d2d2d2d2d2d2d2d2d2d2d2d2d2d2d2d2d2d2d2d2d2d2d2d2d2d2d2d2d2d2d2d2d2d0a4142434445464748494a4b4c4d4e4f505152535455565758595a6162636465666768696a6b6c6d6e6f707172737475767778797a303132333435363738392b2fa2646970667358221220e609aab3e3578a403786ded43240c566c2c8bde66479b307802ad2b9a46aa61b64736f6c634300080a00333c73766720786d6c6e733d22687474703a2f2f7777772e77332e6f72672f323030302f737667222077696474683d2232373022206865696768743d22323730222066696c6c3d226e6f6e65223e3c706174682066696c6c3d2275726c282342292220643d224d302030683237307632373048307a222f3e3c646566733e3c66696c7465722069643d22412220636f6c6f722d696e746572706f6c6174696f6e2d66696c746572733d2273524742222066696c746572556e6974733d227573657253706163654f6e55736522206865696768743d22323730222077696474683d22323730223e3c666544726f70536861646f772064783d2230222064793d22312220737464446576696174696f6e3d22322220666c6f6f642d6f7061636974793d222e323235222077696474683d223230302522206865696768743d2232303025222f3e3c2f66696c7465723e3c2f646566733e3c7061746820643d224d37322e3836332034322e393439632d2e3636382d2e3338372d312e3432362d2e35392d322e3139372d2e3539732d312e3532392e3230342d322e3139372e35396c2d31302e30383120362e3033322d362e383520332e3933342d31302e30383120362e303332632d2e3636382e3338372d312e3432362e35392d322e3139372e3539732d312e3532392d2e3230342d322e3139372d2e35396c2d382e3031332d342e37323161342e353220342e35322030203020312d312e3538392d312e363136632d2e3338342d2e3636352d2e3539342d312e3431382d2e3630382d322e313837762d392e3331632d2e3031332d2e3737352e3138352d312e3533382e3537322d322e32303861342e323520342e323520302030203120312e3632352d312e3539356c372e3838342d342e3539632e3636382d2e33383720312e3432362d2e353920322e3139372d2e353973312e3532392e32303420322e3139372e35396c372e38383420342e353961342e353220342e353220302030203120312e35383920312e363136632e3338342e3636352e35393420312e3431382e36303820322e31383776362e3033326c362e38352d342e303635762d362e303332632e3031332d2e3737352d2e3138352d312e3533382d2e3537322d322e32303861342e323520342e32352030203020302d312e3632352d312e3539354c34312e3435362032342e3539632d2e3636382d2e3338372d312e3432362d2e35392d322e3139372d2e3539732d312e3532392e3230342d322e3139372e35396c2d31342e38363420382e36353561342e323520342e32352030203020302d312e36323520312e353935632d2e3338372e36372d2e35383520312e3433342d2e35373220322e3230387631372e343431632d2e3031332e3737352e31383520312e3533382e35373220322e32303861342e323520342e323520302030203020312e36323520312e3539356c31342e38363420382e363535632e3636382e33383720312e3432362e353920322e3139372e353973312e3532392d2e32303420322e3139372d2e35396c31302e3038312d352e39303120362e38352d342e3036352031302e3038312d352e393031632e3636382d2e33383720312e3432362d2e353920322e3139372d2e353973312e3532392e32303420322e3139372e35396c372e38383420342e353961342e353220342e353220302030203120312e35383920312e363136632e3338342e3636352e35393420312e3431382e36303820322e31383776392e333131632e3031332e3737352d2e31383520312e3533382d2e35373220322e32303861342e323520342e32352030203020312d312e36323520312e3539356c2d372e38383420342e373231632d2e3636382e3338372d312e3432362e35392d322e3139372e3539732d312e3532392d2e3230342d322e3139372d2e35396c2d372e3838342d342e353961342e353220342e35322030203020312d312e3538392d312e363136632d2e3338352d2e3636352d2e3539342d312e3431382d2e3630382d322e313837762d362e3033326c2d362e383520342e30363576362e303332632d2e3031332e3737352e31383520312e3533382e35373220322e32303861342e323520342e323520302030203020312e36323520312e3539356c31342e38363420382e363535632e3636382e33383720312e3432362e353920322e3139372e353973312e3532392d2e32303420322e3139372d2e35396c31342e3836342d382e363535632e3635372d2e33393420312e3230342d2e393520312e3538392d312e363136732e3539342d312e3431382e3630392d322e3138375635352e353338632e3031332d2e3737352d2e3138352d312e3533382d2e3537322d322e32303861342e323520342e32352030203020302d312e3632352d312e3539356c2d31342e3939332d382e3738367a222066696c6c3d2223666666222f3e3c646566733e3c6c696e6561724772616469656e742069643d2242222078313d2230222079313d2230222078323d22323730222079323d2232373022206772616469656e74556e6974733d227573657253706163654f6e557365223e3c73746f702073746f702d636f6c6f723d2223306333613061222f3e3c73746f70206f66667365743d2231222073746f702d636f6c6f723d2223383764663834222073746f702d6f7061636974793d222e3939222f3e3c2f6c696e6561724772616469656e743e3c2f646566733e3c7465787420783d2233322e352220793d223233312220666f6e742d73697a653d223237222066696c6c3d2223666666222066696c7465723d2275726c282341292220666f6e742d66616d696c793d22506c7573204a616b617274612053616e732c44656a6156752053616e732c4e6f746f20436f6c6f7220456d6f6a692c4170706c6520436f6c6f7220456d6f6a692c73616e732d73657269662220666f6e742d7765696768743d22626f6c64223e",
  "linkReferences": {},
  "deployedLinkReferences": {}
}